:100000000C9438010C9469010C9469010C946901F9
:100010000C9469010C9469010C9469010C946901B8
:100020000C9469010C9469010C9469010C946901A8
:100030000C9469010C9469010C9469010C94690198
:100040000C9469010C9469010C9469010C94690188
:100050000C9469010C9469010C9469010C947F045F
:100060000C9469010C9469010C9469010C94690168
:100070000C9469010C9469010C9469010C94690158
:100080000C9469010C9469010C9469010C94690148
:100090000C9449040C941F040C9469010C9469019C
:1000A0000C9469010C9469010C9469010C94690128
:1000B0000C9469010C9469010C9469010C94690118
:1000C0000C9469010C9469010C9469010C94690108
:1000D0000C9469010C9469010C9469010C946901F8
:1000E0000C9469010C94FD020C94C3020C94BD02A3
:1000F0000C94D8020C94A7010C9442070C94F402BF
:100100000C944E020C94C9040C94F8020C94BB019C
:100110000C9498010C94C9010C94E2020C94D20244
:100120000C94CB020C94CF020C94F0020C946B0153
:100130000C9401020C94DC020C94E6020C94FE0276
:100140000C94EA020C94C7020C94020300002100F4
:10015000240027002A002D00300033000101000098
:10016000040107010A0100002200250028002B00DD
:100170002E003100340002010000050108010B01CE
:10018000000020002300260029002C002F00320050
:100190000001000003010601090105050505070529
:1001A00008080808020202020A0A080804040404F3
:1001B000010101010101010103030303030303031F
:1001C000040707070C0C0C0C0C0C0C0C02020202AE
:1001D00006060606060606060B0B0B0B0B0B0B0B97
:1001E0000102102020080810204010204080020149
:1001F000020108040201010204081020408080402E
:10020000201008040201800402018040201008042C
:1002100002010804020101020408102040800102CA
:1002200004081020408000000A0B02090C0D0E0883
:1002300007030401000000000000000000000000AF
:1002400000000000000000000000000000000000AE
:10025000000012111000000000000000000000006B
:10026000000000000000000000000000C904420778
:1002700011241FBECFEFD1E2DEBFCDBF00E00CBF27
:1002800012E0A0E0B2E0E8E8F3E100E00BBF02C05A
:1002900007900D92AA31B107D9F723E0AAE1B2E0A5
:1002A00001C01D92AA32B207E1F711E0C7E3D1E025
:1002B00000E006C021970109802FFE010E949407EB
:1002C000C633D10780E00807A9F70E94FD040C940B
:1002D000B2090C940000AF92BF92CF92DF92EF92DE
:1002E000FF920F931F93CF93DF936C017B018B01E0
:1002F000040F151FEB015E01AE18BF08C017D10730
:1003000059F06991D601ED91FC910190F081E02DB9
:10031000C6011995892B79F7C501DF91CF911F91FE
:100320000F91FF90EF90DF90CF90BF90AF90089526
:10033000FC01538D448D252F30E0842F90E0821BEB
:10034000930B541710F0CF96089501970895FC0170
:10035000918D828D981761F0A28DAE0FBF2FB11DC8
:100360005D968C91928D9F5F9F73928F90E0089520
:100370008FEF9FEF0895FC01918D828D981731F0DA
:10038000828DE80FF11D858D90E008958FEF9FEF2E
:100390000895FC01918D228D892F90E0805C9F4F04
:1003A000821B91098F739927089584E292E00E943D
:1003B000C90121E0892B09F420E0822F0895FC0176
:1003C000A48DA80FB92FB11DA35ABF4F2C91848DB6
:1003D00090E001968F739927848FA689B7892C9313
:1003E000A089B1898C91837080648C93938D848D66
:1003F000981306C00288F389E02D80818F7D808369
:100400000895EF92FF920F931F93CF93DF93EC0128
:1004100081E0888F9B8D8C8D98131AC0E889F989AB
:10042000808185FF15C09FB7F894EE89FF896083AE
:10043000E889F98980818370806480839FBF81E02F
:1004400090E0DF91CF911F910F91FF90EF90089571
:10045000F62E0B8D10E00F5F1F4F0F731127E02E4C
:100460008C8D8E110CC00FB607FCFACFE889F98984
:10047000808185FFF5CFCE010E94DF01F1CFEB8DAA
:10048000EC0FFD2FF11DE35AFF4FF0829FB7F89458
:100490000B8FEA89FB8980818062CFCFCF93DF9376
:1004A000EC01888D8823B9F0AA89BB89E889F9898C
:1004B0008C9185FD03C0808186FD0DC00FB607FCC1
:1004C000F7CF8C9185FFF2CF808185FFEDCFCE01F4
:1004D0000E94DF01E9CFDF91CF91089580E090E0A5
:1004E000892B49F080E090E0892B29F00E940000E0
:1004F00081110E94000080E090E0892B29F00E9489
:10050000D50181110E94000080E090E0892B49F024
:1005100080E090E0892B29F00E94000081110E9468
:10052000000080E090E0892B49F080E090E0892B8A
:1005300029F00E94000081110C9400000895815060
:10054000823108F05AC0E82FF0E08827E555FD4FCA
:100550008F4F0C949407CB02CF02BD02C302C70297
:10056000FD02D202D802DC02E202E602EA02F00256
:10057000F402FD02F802FE020203809180008F77F0
:10058000809380000895809180008F7DF9CF8091C5
:100590008000877FF5CF84B58F7784BD089584B5BB
:1005A0008F7DFBCF8091B0008F778093B00008954E
:1005B0008091B0008F7DF9CF809190008F778093EC
:1005C00090000895809190008F7DF9CF80919000E8
:1005D000877FF5CF8091A0008F778093A00008954A
:1005E0008091A0008F7DF9CF8091A000877FF5CF0B
:1005F000809120018F7780932001089580912001C0
:100600008F7DF9CF80912001877FF5CF1F93CF9306
:10061000DF93282F30E0F901EA5DFD4F8491F90165
:10062000E052FE4FD491F901E656FE4FC491CC231F
:10063000A9F0162F81110E949F02EC2FF0E0EE0F1F
:10064000FF1FEA59FE4FA591B4918FB7F894EC9132
:10065000111108C0D095DE23DC938FBFDF91CF91BD
:100660001F910895DE2BF8CFCF93DF9390E0FC012C
:10067000E052FE4F249186569E4FFC0184918823C0
:10068000D1F090E0880F991FFC01E45BFE4FA5912B
:10069000B491FC01EA59FE4FC591D49161110EC08D
:1006A0009FB7F8948C91E22FE0958E238C9328814C
:1006B000E223E8839FBFDF91CF9108958FB7F8942D
:1006C000EC91E22BEC938FBFF6CFCF92DF92EF92BB
:1006D000FF920F931F93CF93DF931F921F92CDB77B
:1006E000DEB769834A83880F991F00912303109115
:1006F0002403000F111FEDECF2E09F012D5C32404E
:100700002017310714F41192F8CF2981FC01E3532B
:10071000FD4F21838A81808360E0809121030E94C4
:1007200006031016110604F501501109F801E353F0
:10073000FD4FE080D0901F03C0901D0388E0F82E8D
:100740006E2D661F6627661F8C2D0E940603EE0C19
:1007500061E08D2D0E94060360E08D2D0E9406034E
:10076000FA94F110EDCFDDCF61E0809121030F907D
:100770000F90DF91CF911F910F91FF90EF90DF903D
:10078000CF900C940603EF92FF921F93CF93DF93C9
:10079000209123033091240382179307B4F4EC01D2
:1007A00023E0880F991F2A95E1F79C0123523D4FC2
:1007B000790111E0F70111927F0140E0612FCE0134
:1007C0000E9465031F5F1930A9F7DF91CF911F9138
:1007D000FF90EF900895CF93DF93EC011982188278
:1007E0001B821A821D821C8261E070E090E080E032
:1007F0000E94C1080097A1F0998388831B821A8206
:100800002C813D81232B11F4FC0110821D821C825E
:1008100068E172E088819981DF91CF910C94AB09F6
:1008200088819981009711F00E94380819821882F6
:100830001D821C821B821A82DF91CF9108951F9224
:100840000F920FB60F9211240BB60F922F933F9376
:100850004F935F936F937F938F939F93AF93BF93C8
:10086000EF93FF9384E292E00E94DF01FF91EF910A
:10087000BF91AF919F918F917F916F915F914F91B8
:100880003F912F910F900BBE0F900FBE0F901F90B6
:1008900018951F920F920FB60F9211240BB60F925C
:1008A0002F938F939F93EF93FF93E0913402F091F6
:1008B00035028081E0913A02F0913B0282FD1DC039
:1008C000908180913D028F5F8F7320913E0282174D
:1008D00041F0E0913D02F0E0EC5DFD4F958F80939B
:1008E0003D02FF91EF919F918F912F910F900BBE41
:1008F0000F900FBE0F901F9018958081F2CF1F921E
:100900000F920FB60F9211242F933F938F939F93C3
:10091000AF93BF9380911F0290912002A09121027A
:10092000B091220230911E0223E0230F2D3758F59B
:100930000196A11DB11D20931E0280931F0290936A
:100940002002A0932102B093220280911A0290917A
:100950001B02A0911C02B0911D020196A11DB11DA8
:1009600080931A0290931B02A0931C02B0931D0265
:10097000BF91AF919F918F913F912F910F900FBE9B
:100980000F901F90189526E8230F0296A11DB11D08
:10099000D2CFE4E2F2E01382128288EE93E0A0E08C
:1009A000B0E084839583A683B7838AE092E0918345
:1009B00080838DEC90E0958784878CEC90E097871E
:1009C000868788EC90E0918B808B89EC90E0938B0C
:1009D000828B8AEC90E0958B848B8EEC90E0978BE9
:1009E000868B118E128E138E148E87EC92E00E94ED
:1009F000EB0381EC92E00C94EB03789484B5826075
:100A000084BD84B5816084BD85B5826085BD85B5B2
:100A1000816085BD80916E00816080936E00109230
:100A200081008091810082608093810080918100AB
:100A3000816080938100809180008160809380003C
:100A40008091B10084608093B1008091B00081609A
:100A50008093B0008091910082608093910080919A
:100A600091008160809391008091900081608093DB
:100A700090008091A10082608093A1008091A100EC
:100A800081608093A1008091A00081608093A0008C
:100A900080912101826080932101809121018160F8
:100AA00080932101809120018160809320018091B9
:100AB0007A00846080937A0080917A0082608093CB
:100AC0007A0080917A00816080937A0080917A0028
:100AD000806880937A001092C100CCE0D0E0D0937F
:100AE0001E03C0931D038BE090E09093200380933E
:100AF0001F038DE090E090932203809321031092D6
:100B0000250382E090E0909324038093230361E027
:100B10008CE00E94340361E080911F030E94340343
:100B200061E0809121030E94340361E08091210300
:100B30000E940603D0931E03C0931D03EDEDF2E067
:100B40008DE193E011928E179F07E1F7D0E0C0E0AE
:100B50008091230390912403C817D9073CF540E006
:100B60006FE0CE010E9465038091230390912403DE
:100B7000C817D9072CF447E06BE0CE010E9465034B
:100B800040E069E0CE010E946503CE010E94C303EC
:100B90008091230390912403C817D9072CF440E0D7
:100BA0006CE0CE010E9465032196D2CFD0E0C0E078
:100BB0008091230390912403C817D907B4F441E02E
:100BC0006CE0CE010E946503809123039091240381
:100BD000C817D9072CF448E06AE0CE010E946503EB
:100BE000CE010E94C3032196E3CF61E087E30E9418
:100BF000340360E08AE00E94340360E088E00E94F1
:100C0000340361E087E00E94340361E086E00E94E3
:100C1000340361E085E00E94340361E084E00E94D7
:100C2000340361E083E00E94340361E082E00E94CB
:100C3000340361E089E00E94340360E086E30E94AF
:100C4000340361E08DE00E943403E0913402F091BE
:100C5000350282E08083E0913002F091310210820F
:100C6000E0913202F09133028FEC808310923C02CB
:100C7000E0913802F091390286E08083E0913602FB
:100C8000F0913702808180618083E0913602F0919B
:100C90003702808188608083E0913602F0913702CC
:100CA000808180688083E0913602F09137028081F4
:100CB0008F7D808330E4732E88248A9443E0942EC1
:100CC000A12CB12C0EE212E058EEE52E51E0F52EEB
:100CD00062EAC62E61E0D62ED0E0C0E08091230308
:100CE00090912403C817D9072CF4CE010E94C303A6
:100CF0002196F4CF80917B00877F80937B00709258
:100D00007C0080917A00806480937A0080917A00E0
:100D100086FDFCCF60917800C0917900DC2FC62F52
:100D200061E087E30E940603BE01DD0F880B990B8B
:100D300022E0660F771F881F991F2A95D1F7A5011A
:100D400094010E9453072F5F3F4F4F4F5F4F213059
:100D5000310509F03EC060E087E00E94060361E0D3
:100D600086E00E94060361E085E00E94060360E0E1
:100D700084E00E94060360E083E00E94060360E0D6
:100D800082E00E94060360E089E00E9406038091F1
:100D9000230281111BC0F8018491F701C491F6016F
:100DA000D491DD2379F081110E949F02ED2FF0E0B4
:100DB000EE0FFF1FE058FE4FA591B4918C91C82310
:100DC00081E009F480E08170809323020E946E022A
:100DD00083CF22303105D1F461E087E00E94060321
:100DE00061E086E00E94060360E085E00E94060361
:100DF00061E084E00E94060361E083E00E94060354
:100E000060E082E00E94060361E0BECF233031053E
:100E100091F461E087E00E94060361E086E00E94B1
:100E2000060361E085E00E94060361E084E00E9421
:100E3000060360E0E2CF24303105B1F460E087E0E2
:100E40000E94060361E086E00E94060361E085E0FF
:100E50000E94060360E084E00E94060360E083E0F5
:100E60000E94060361E0CDCF61E087E00E940603A7
:100E700060E086E00E94060361E085E00E940603D0
:100E800061E0E9CF8091C1029091C202009711F018
:100E90000E9438088091C7029091C802009711F013
:100EA0000C9438080895052E97FB1EF400940E94B8
:100EB0006A0757FD07D00E94720707FC03D04EF463
:100EC0000C946A0750954095309521953F4F4F4FB0
:100ED0005F4F089590958095709561957F4F8F4FE6
:100EE0009F4F0895A1E21A2EAA1BBB1BFD010DC046
:100EF000AA1FBB1FEE1FFF1FA217B307E407F507CA
:100F000020F0A21BB30BE40BF50B661F771F881FA5
:100F1000991F1A9469F760957095809590959B013B
:100F2000AC01BD01CF010895EE0FFF1F881F8BBFDD
:100F30000790F691E02D19940F931F93CF93DF93B1
:100F40008230910510F482E090E0E0912803F09166
:100F5000290330E020E0B0E0A0E0309799F42115BB
:100F6000310509F44AC0281B390B24303105D8F566
:100F70008A819B816115710589F1FB0193838283CD
:100F8000FE0111C040815181028113814817590728
:100F9000E0F04817590799F4109761F012960C93F6
:100FA000129713961C933296CF01DF91CF911F9128
:100FB0000F9108950093280310932903F4CF21156E
:100FC000310551F04217530738F0A901DB019A01AE
:100FD000BD01DF01F801C1CFEF01F9CF90932903E3
:100FE00080932803CDCFFE01E20FF31F81939193ED
:100FF0002250310939832883D7CF2091260330919D
:101000002703232B41F420910202309103023093F5
:10101000270320932603209100023091010221151D
:10102000310541F42DB73EB74091040250910502BD
:10103000241B350BE0912603F0912703E217F307F9
:10104000A0F42E1B3F0B2817390778F0AC014E5F38
:101050005F4F2417350748F04E0F5F1F509327034B
:1010600040932603819391939FCFF0E0E0E09CCFE3
:10107000CF93DF930097E9F0FC013297138212823D
:10108000A0912803B0912903ED0130E020E01097F2
:10109000A1F420813181820F931F2091260330918A
:1010A00027032817390709F061C0F0932703E0935D
:1010B0002603DF91CF910895EA01CE17DF07E8F507
:1010C0004A815B819E0141155105B1F7E901FB831E
:1010D000EA8349915991C40FD51FEC17FD0761F4BC
:1010E000808191810296840F951FE90199838883FD
:1010F000828193819B838A83F0E0E0E012968D9158
:101100009C9113970097B9F52D913C911197CD01C2
:101110000296820F931F20912603309127032817F0
:10112000390739F6309751F51092290310922803A8
:10113000B0932703A0932603BCCFD383C2834081FF
:101140005181840F951FC817D90761F44E5F5F4F17
:1011500088819981480F591F518340838A819B81DF
:10116000938382832115310509F0B0CFF0932903D1
:10117000E09328039ECFFD01DC01C0CF13821282D1
:10118000D7CF4F925F926F927F928F929F92AF9242
:10119000BF92CF92DF92EF92FF920F931F93CF9364
:1011A000DF938C01009799F4CB01DF91CF911F91D0
:1011B0000F91FF90EF90DF90CF90BF90AF909F90F6
:1011C0008F907F906F905F904F900C949C07FC01E4
:1011D000E60FF71F9C0122503109E217F30708F4CC
:1011E000AEC0D901CD91DC911197C617D70720F178
:1011F000C530D10578F0CE0104978617970750F0D7
:10120000C61BD70B2297C193D1936D937C93CF01CB
:101210000E943808C801DF91CF911F910F91FF9074
:10122000EF90DF90CF90BF90AF909F908F907F9086
:101230006F905F904F9008955B01AC1ABD0A4C010E
:101240008C0E9D1EA0912803B0912903512C412C96
:10125000F12CE12C109731F5809126039091270312
:101260008815990509F05CC04616570608F058C065
:101270008091000290910102009741F48DB79EB7D2
:101280004091040250910502841B950BE817F90761
:1012900008F055C0F0932703E0932603F90171830A
:1012A0006083B8CF8D919C91119712966C90129794
:1012B00013967C901397A815B90559F56C0142E077
:1012C000C40ED11CCA14DB0420F1AC014A195B091D
:1012D000DA011296159780F06282738251834083FF
:1012E000D9016D937C93E114F10471F0D701139649
:1012F000FC93EE9312978ECF22968C0F9D1FF901CF
:1013000091838083F301EFCFF0932903E0932803C7
:1013100081CF4816590608F42C017D01D3019ACFDC
:10132000CB010E949C077C01009749F0AE01B801F7
:101330000E94A209C8010E94380887016BCF10E003
:1013400000E068CFFB01DC0102C001900D9241502A
:101350005040D8F70895FB01DC0101900D92002068
:10136000E1F7089511E0C7E3D1E000E006C0802F67
:10137000FE010E9494072196011DC833D10780E029
:081380000807A9F7F894FFCF5C
:1013880000002A0380000000000001026B019801A0
:0A1398004E02C901A701BB010000CD
:00000001FF
