:100000000C942D020C945E020C945E020C945E0221
:100010000C945E020C945E020C945E020C945E02E0
:100020000C945E020C945E020C945E020C945E02D0
:100030000C945E020C945E020C945E020C945E02C0
:100040000C945E020C945E020C945E020C945E02B0
:100050000C945E020C945E020C945E020C945D059E
:100060000C945E020C945E020C945E020C945E0290
:100070000C945E020C945E020C945E020C945E0280
:100080000C945E020C945E020C945E020C945E0270
:100090000C9427050C94FD040C945E020C945E02F3
:1000A0000C945E020C945E020C945E020C945E0250
:1000B0000C945E020C945E020C945E020C945E0240
:1000C0000C945E020C945E020C945E020C945E0230
:1000D0000C945E020C945E020C945E020C945E0220
:1000E0000C945E020C94D1030C94E5030C94DF0392
:1000F0000C94F3030C948D020C94B2030C94C4037F
:100100000C94F7030C94E9030C94C7030C94BE02FF
:100110000C9443030C94ED030C94B8030C9460020C
:100120000C94F6020C949C020C94DB030C94CD030B
:100130000C94F2030C94B0020C94C0030C94D703FB
:100140000C94BC030C94A705000021002400270098
:100150002A002D00300033000101000004010701D6
:100160000A0100002200250028002B002E0031008B
:10017000340002010000050108010B01007CFE9221
:100180008AFE7C00008088FEFE80800000C4E6A21B
:10019000929E8C000044C69292FE6C00003028248F
:1001A000FEFE2000004ECE8A8AFA7200007CFE928B
:1001B00092F66400000606E2FA1E0600006CFE924B
:1001C00092FE6C00004CDE9292FE7C000040E8A89B
:1001D000A8F8F00000FEFE9090F060000070F88833
:1001E00088D850000060F09090FEFE000070F8A8E3
:1001F000A8B830000020FCFE222604000018BCA491
:10020000A4FC7C0000FEFE1010F0E000000080F472
:10021000F48000000060E080FA7A000000FEFE201A
:1002200070D88800000000FEFE00000000F8F830E2
:10023000E030F8F800F8F81818F8F0000070F888C6
:1002400088F8700000FCFC24243C180000183C24B2
:10025000FCFC80C000F8F808083830000090A8A81E
:10026000A8A84800001010FCFC1010000078F880CE
:1002700080F8F800003070C0C07030000078F8805E
:10028000F080F8780088D87070D888000018B8A07E
:10029000A0F878000000C8E8B898000000FCFE1242
:1002A00012FEFC0000FEFE9292FE6C00007CFE82BC
:1002B00082C6440000FEFE8282FE7C0000FEFE92AA
:1002C0009292820000FEFE1212120200007CFE8258
:1002D000A2E6640000FEFE1010FEFE00000082FE9A
:1002E000FE8200000060E082FE7E020000FEFE381A
:1002F0006CC6820000FEFE808080800000FEFE0C46
:10030000180CFEFE00FEFE0C1830FEFE007CFE8285
:1003100082FE7C0000FEFE22223E1C00003C7E424B
:1003200062FEBC0000FEFE3272DE8C00004CDE92EB
:1003300092F66400000602FEFE020600007EFE80C9
:1003400080FEFE00003E7EC0C07E3E0000FEFE60DD
:100350003060FEFE00C6EE381038EEC6000E1EF00D
:10036000F01E0E0000C2E2B29A8E8600000020004D
:100370002300260029002C002F003200000100007D
:100380000301060109010505050507050808080818
:10039000020202020A0A080804040404010101011D
:1003A0000101010103030303030303030407070718
:1003B0000C0C0C0C0C0C0C0C0202020206060606BD
:1003C000060606060B0B0B0B0B0B0B0B010210208A
:1003D000200808102040102040800201020108047B
:1003E000020101020408102040808040201008040F
:1003F0000201800402018040201008040201080468
:1004000002010102040810204080010204081020AB
:10041000408000000A0B02090C0D0E0807030401BE
:1004200000000000000000000000000000000000CC
:100430000000000000000000000000000000121199
:10044000100000000000000000000000000000009C
:100450000000000000000000A70511241FBECFEF20
:10046000D1E2DEBFCDBF00E00CBF12E0A0E0B2E001
:10047000ECEBF3E100E00BBF02C007900D92A63257
:10048000B107D9F723E0A6E2B2E001C01D92A6327F
:10049000B207E1F712E0CDE2D2E000E006C021971A
:1004A0000109802FFE010E94CD09CC32D10780E0E6
:1004B0000807A9F70E94D4050C94DC090C940000ED
:1004C000AF92BF92CF92DF92EF92FF920F931F9362
:1004D000CF93DF936C017B018B01040F151FEB01A0
:1004E0005E01AE18BF08C017D10759F06991D60157
:1004F000ED91FC910190F081E02DC6011995892BB9
:1005000079F7C501DF91CF911F910F91FF90EF9087
:10051000DF90CF90BF90AF900895FC01538D448D34
:10052000252F30E0842F90E0821B930B541710F09E
:10053000CF96089501970895FC01918D828D9817AB
:1005400061F0A28DAE0FBF2FB11D5D968C91928D83
:100550009F5F9F73928F90E008958FEF9FEF0895B4
:10056000FC01918D828D981731F0828DE80FF11D7D
:10057000858D90E008958FEF9FEF0895FC01918D98
:10058000228D892F90E0805C9F4F821B91098F7391
:100590009927089580E392E00E94BE0221E0892B12
:1005A00009F420E0822F0895FC01A48DA80FB92F33
:1005B000B11DA35ABF4F2C91848D90E001968F738B
:1005C0009927848FA689B7892C93A089B1898C91AA
:1005D000837080648C93938D848D981306C00288F9
:1005E000F389E02D80818F7D80830895EF92FF92C3
:1005F0000F931F93CF93DF93EC0181E0888F9B8D46
:100600008C8D98131AC0E889F989808185FF15C0FF
:100610009FB7F894EE89FF896083E889F989808122
:100620008370806480839FBF81E090E0DF91CF91F1
:100630001F910F91FF90EF900895F62E0B8D10E013
:100640000F5F1F4F0F731127E02E8C8D8E110CC082
:100650000FB607FCFACFE889F989808185FFF5CFCD
:10066000CE010E94D402F1CFEB8DEC0FFD2FF11DD6
:10067000E35AFF4FF0829FB7F8940B8FEA89FB890A
:1006800080818062CFCFCF93DF93EC01888D882368
:10069000B9F0AA89BB89E889F9898C9185FD03C0E5
:1006A000808186FD0DC00FB607FCF7CF8C9185FFCA
:1006B000F2CF808185FFEDCFCE010E94D402E9CF39
:1006C000DF91CF91089580E090E0892B49F080E0A0
:1006D00090E0892B29F00E94000081110E94000007
:1006E00080E090E0892B29F00E94CA0281110E94CB
:1006F000000080E090E0892B49F080E090E0892BB9
:1007000029F00E94000081110E94000080E090E02A
:10071000892B49F080E090E0892B29F00E940000AD
:1007200081110C94000008958150823108F05AC064
:10073000E82FF0E08827E056FC4F8F4F0C94CD094E
:10074000C003C403B203B803BC03F203C703CD0361
:10075000D103D703DB03DF03E503E903F203ED0372
:10076000F303F703809180008F77809380000895D2
:10077000809180008F7DF9CF80918000877FF5CFB9
:1007800084B58F7784BD089584B58F7DFBCF80912C
:10079000B0008F778093B00008958091B0008F7D76
:1007A000F9CF809190008F77809390000895809189
:1007B00090008F7DF9CF80919000877FF5CF809159
:1007C000A0008F778093A00008958091A0008F7D76
:1007D000F9CF8091A000877FF5CF809120018F779E
:1007E000809320010895809120018F7DF9CF809121
:1007F0002001877FF5CF1F93CF93DF93282F30E021
:10080000F901EE5EFB4F8491F901E453FC4FD49162
:10081000F901EA57FC4FC491CC23A9F0162F81119E
:100820000E949403EC2FF0E0EE0FFF1FEE59FE4FF5
:10083000A591B4918FB7F894EC91111108C0D0959F
:10084000DE23DC938FBFDF91CF911F910895DE2BC4
:10085000F8CFCF93DF9390E0FC01E453FC4F249159
:100860008A579C4FFC0184918823D1F090E0880F37
:10087000991FFC01E85BFE4FA591B491FC01EE5974
:10088000FE4FC591D49161110EC09FB7F8948C9121
:10089000E22FE0958E238C932881E223E8839FBF8B
:1008A000DF91CF9108958FB7F894EC91E22BEC9300
:1008B0008FBFF6CF3FB7F89480912B0290912C0216
:1008C000A0912D02B0912E0226B5A89B05C02F3F06
:1008D00019F00196A11DB11D3FBFBA2FA92F982F66
:1008E0008827BC01CD01620F711D811D911D42E061
:1008F000660F771F881F991F4A95D1F70895CF92E9
:10090000DF92EF92FF920F931F93CF93DF931F928B
:100910001F92CDB7DEB769834A83880F991F009174
:10092000230310912403000F111FEDECF2E09F014F
:100930002D5C32402017310714F41192F8CF298131
:10094000FC01E353FD4F21838A81808360E0809125
:1009500021030E94FB031016110604F50150110932
:10096000F801E353FD4FE080D0901F03C0901D03BA
:1009700088E0F82E6E2D661F6627661F8C2D0E945C
:10098000FB03EE0C61E08D2D0E94FB0360E08D2DDA
:100990000E94FB03FA94F110EDCFDDCF61E080916E
:1009A00021030F900F90DF91CF911F910F91FF9036
:1009B000EF90DF90CF900C94FB03EF92FF920F9398
:1009C0001F93CF937C018C0183E0000F111F8A9548
:1009D000E1F703521D4FC1E0F80111928F0140E091
:1009E0006C2FC7010E947F04CF5FC930A9F7CF9158
:1009F0001F910F91FF90EF9008951F920F920FB6E5
:100A00000F9211240BB60F922F933F934F935F9346
:100A10006F937F938F939F93AF93BF93EF93FF93C6
:100A200080E392E00E94D402FF91EF91BF91AF91D9
:100A30009F918F917F916F915F914F913F912F91F6
:100A40000F900BBE0F900FBE0F901F9018951F9226
:100A50000F920FB60F9211240BB60F922F938F9314
:100A60009F93EF93FF93E0914002F09141028081C8
:100A7000E0914602F091470282FD1DC09081809175
:100A800049028F5F8F7320914A02821741F0E091F3
:100A90004902F0E0E05DFD4F958F80934902FF91A0
:100AA000EF919F918F912F910F900BBE0F900FBEE2
:100AB0000F901F9018958081F2CF1F920F920FB662
:100AC0000F9211242F933F938F939F93AF93BF93D4
:100AD0008091270290912802A0912902B0912A02C8
:100AE0003091260223E0230F2D3758F50196A11DE2
:100AF000B11D209326028093270290932802A09391
:100B00002902B0932A0280912B0290912C02A0918D
:100B10002D02B0912E020196A11DB11D80932B02D2
:100B200090932C02A0932D02B0932E02BF91AF910F
:100B30009F918F913F912F910F900FBE0F901F901B
:100B4000189526E8230F0296A11DB11DD2CFE0E330
:100B5000F2E01382128288EE93E0A0E0B0E084839A
:100B60009583A683B7838CE092E0918380838DEC9C
:100B700090E0958784878CEC90E09787868788EC57
:100B800090E0918B808B89EC90E0938B828B8AEC48
:100B900090E0958B848B8EEC90E0978B868B118EFA
:100BA000128E138E148E0895CF93DF93CDB7DEB7D8
:100BB0002E970FB6F894DEBF0FBECDBF789484B5E4
:100BC000826084BD84B5816084BD85B5826085BD49
:100BD00085B5816085BD80916E00816080936E00D7
:100BE00010928100809181008260809381008091C9
:100BF000810081608093810080918000816080937A
:100C000080008091B10084608093B1008091B00039
:100C100081608093B0008091910082608093910008
:100C2000809191008160809391008091900081601B
:100C3000809390008091A10082608093A1008091B8
:100C4000A10081608093A1008091A00081608093C9
:100C5000A000809121018260809321018091210177
:100C60008160809321018091200181608093200127
:100C700080917A00846080937A0080917A0082600B
:100C800080937A0080917A00816080937A008091CD
:100C90007A00806880937A001092C1000CE010E026
:100CA00010931E0300931D038BE090E090932003AC
:100CB00080931F038DE090E09093220380932103A3
:100CC0001092250382E090E0909324038093230305
:100CD00061E08CE00E94290461E080911F030E9482
:100CE000290461E0809121030E94290461E0809140
:100CF00021030E94FB0310931E0300931D03EDEDDF
:100D0000F2E0119223E0ED31F207D9F710E000E0B4
:100D10008091230390912403081719077CF540E084
:100D20006FE0C8010E947F04809123039091240307
:100D3000081719072CF447E06BE0C8010E947F04F4
:100D400040E069E0C8010E947F04809123039091F4
:100D50002403081719071CF4C8010E94DD048091C0
:100D6000230390912403081719072CF440E06CE04A
:100D7000C8010E947F040F5F1F4FCACF10E000E040
:100D8000809123039091240308171907F4F441E09C
:100D90006CE0C8010E947F0480912303909124039A
:100DA000081719072CF448E06AE0C8010E947F0484
:100DB0008091230390912403081719071CF4C8019C
:100DC0000E94DD040F5F1F4FDBCF61E087E30E94CD
:100DD000290460E08AE00E94290460E089E00E9422
:100DE000290460E088E00E94290461E087E00E9415
:100DF000290461E086E00E94290461E085E00E9408
:100E0000290461E084E00E94290461E083E00E94FB
:100E1000290461E082E00E94290461E081E00E94EF
:100E2000290460E086E30E94290461E08DE00E94CD
:100E30002904E0914002F091410282E08083E09138
:100E40003C02F0913D021082E0913E02F0913F029F
:100E50008FEC808310924802E0914402F0914502A9
:100E600086E08083E0914202F091430280818061BC
:100E70008083E0914202F091430280818860808308
:100E8000E0914202F0914302808180688083E0918A
:100E90004202F091430280818F7D8083E0902303A2
:100EA000F0902403B3E0EE0CFF1CBA95E1F731EBB0
:100EB000E3163FEFF3060CF458C14AE152E05A87BB
:100EC00049875701270150E5450E511CE985FA85F0
:100ED0008191FA87E98798E0E0E0F2E0DE0111967F
:100EE00001900D929A95E1F79FEB980F9A3138F5A2
:100EF000F8E08F02C0011124DE01119630E020E0FD
:100F00008C569F4FFC01E20FF31FE491ED932F5F8E
:100F10003F4F28303105B1F7809125038111A1C0E1
:100F200010E000E0B501600F711F90E080E06830D4
:100F300071050CF442C0019668507109F8CF9FE921
:100F4000980F9A31A8F428E08202C0011124DE0132
:100F5000119630E020E08C539140FC01E20FF31F2A
:100F6000E491ED932F5F3F4F28303105B1F7D4CF97
:100F700090ED980F9A30A8F438E08302C001112454
:100F8000DE01119630E020E084509040FC01E20F39
:100F9000F31FE491ED932F5F3F4F28303105B1F7F8
:100FA000BBCF803209F0B8CF19821A821B821C8213
:100FB0001D821E821F821886AFCF2091230330919D
:100FC000240382179307F4F468307105A8F4E1E074
:100FD000F0E0EC0FFD1FE00FF11F4081FC01A3E0EA
:100FE000EE0FFF1FAA95E1F7E353FD4FE60FF71F42
:100FF000408B6F5F0E947F040F5F1F4F0830110509
:1010000009F090CFE8E0AE0EB11CA414B50409F0CD
:101010005DCF0E945A042B013C0198EC892E912C43
:10102000A12CB12C0E945A046419750986099709EC
:10103000683E734081059105A8F3F1E08F1A91088D
:10104000A108B10828EE420E23E0521E611C711C5B
:1010500081149104A104B10429F741E0E41AF108D4
:1010600026CF8091230390912403019743E0880FBA
:10107000991F4A95E1F71C012A183B0858E0852E74
:10108000912C2091230330912403890101501109EF
:10109000C1018819990997FF04C0015011090896E8
:1010A000FACF0F3F4FEF14070CF4ACCF0F3F1007F0
:1010B00009F453C0021713070CF04FC08830910594
:1010C0000CF04BC0F401319721E030E02C0F3D1FB4
:1010D000E20FF31F2081A80133E0440F551F3A951A
:1010E000E1F75C874B87E0E8F0E002C0F595E79513
:1010F0008A95E2F76E2E7E2E7094D12CC12C422F51
:1011000050E05E874D878091230390912403081758
:101110001907E4F4EB85FC85EC0DFD1DE353FD4F51
:10112000808927E030E02C193D094D855E8502C09D
:10113000559547952A95E2F740FF15C08629808B83
:10114000408961E06C0DC8010E947F045FEFC51A01
:10115000D50A88E0C816D104B1F691E0891A910841
:1011600009F08FCF4FCF8721EACF80917B00877F17
:1011700080937B0080E480937C0080917A0080647F
:1011800080937A0080917A0086FDFCCF8091780070
:1011900000917900102F082F61E087E30E94FB0384
:1011A00025E030E0D8010E94D5092FEF33E040E080
:1011B00050E00E947D092F5F3F4F4F4F5F4F21301E
:1011C000310509F041C060E087E00E94FB0361E067
:1011D00086E00E94FB0361E085E00E94FB0360E083
:1011E00084E00E94FB0360E083E00E94FB0360E078
:1011F00082E00E94FB0360E081E00E94FB0380919B
:101200002F0281111EC0EAE1F4E08491E4EDF3E0E5
:101210001491EEE8F3E00491002379F081110E942B
:101220009403E02FF0E0EE0FFF1FE459FC4FA5916F
:10123000B4918C91182381E009F480E0817080934F
:101240002F020E9463032ACE22303105D1F461E0DF
:1012500087E00E94FB0361E086E00E94FB0360E000
:1012600085E00E94FB0361E084E00E94FB0361E0F3
:1012700083E00E94FB0360E082E00E94FB0361E0E8
:10128000BBCF2330310591F461E087E00E94FB037E
:1012900061E086E00E94FB0361E085E00E94FB03C1
:1012A00061E084E00E94FB0360E0E2CF243031057E
:1012B000B1F460E087E00E94FB0361E086E00E94F9
:1012C000FB0361E085E00E94FB0360E084E00E9494
:1012D000FB0360E083E00E94FB0361E0CDCF61E0AF
:1012E00087E00E94FB0360E086E00E94FB0361E070
:1012F00085E00E94FB0361E0E9CF052E97FB1EF419
:1013000000940E94940957FD07D00E949C0907FC95
:1013100003D04EF40C949409509540953095219546
:101320003F4F4F4F5F4F0895909580957095619511
:101330007F4F8F4F9F4F0895A1E21A2EAA1BBB1B10
:10134000FD010DC0AA1FBB1FEE1FFF1FA217B30791
:10135000E407F50720F0A21BB30BE40BF50B661FA7
:10136000771F881F991F1A9469F76095709580956B
:1013700090959B01AC01BD01CF010895A29FB001E2
:10138000B39FC001A39F700D811D1124911DB29FB9
:10139000700D811D1124911D0895EE0FFF1F881FF0
:1013A0008BBF0790F691E02D19940E94BE09B7FFFC
:0C13B0000895821B930B0895F894FFCF62
:1013BC0000082A1C771C2A0800000000F6026002B4
:1013CC008D024303BE029C02B00257414C5445525D
:0613DC002047415900000A
:00000001FF
