:100000000C9430020C9461020C9461020C94610215
:100010000C9461020C9461020C9461020C946102D4
:100020000C9461020C9461020C9461020C946102C4
:100030000C9461020C9461020C9461020C946102B4
:100040000C9461020C9461020C9461020C946102A4
:100050000C9461020C9461020C9461020C944305AF
:100060000C9461020C9461020C9461020C94610284
:100070000C9461020C9461020C9461020C94610274
:100080000C9461020C9461020C9461020C94610264
:100090000C940D050C94E3040C9461020C94610221
:1000A0000C9461020C9461020C9461020C94610244
:1000B0000C9461020C9461020C9461020C94610234
:1000C0000C9461020C9461020C9461020C94610224
:1000D0000C9461020C9461020C9461020C94610214
:1000E0000C9461020C94DE030C94C7030C94B302CD
:1000F0000C94BF030C9463020C9490020C94FA03CA
:100100000C949F020C94BB030C94C3030C948D05B8
:100110000C94F5030C94F9020C94D0030C94E803AE
:100120000C94D4030C94F0030C94C1020C94B5030A
:100130000C94DA030C949D090C94EC030C94F603D4
:100140000C9446030C94CA030C94E20300002100B3
:10015000240027002A002D00300033000101000098
:10016000040107010A0100002200250028002B00DD
:100170002E003100340002010000050108010B01CE
:10018000000020002300260029002C002F00320050
:100190000001000003010601090105050505070529
:1001A00008080808020202020A0A080804040404F3
:1001B000010101010101010103030303030303031F
:1001C000040707070C0C0C0C0C0C0C0C02020202AE
:1001D00006060606060606060B0B0B0B0B0B0B0B97
:1001E0000102102020080810204010204080020149
:1001F000020108040201010204081020408080402E
:10020000201008040201800402018040201008042C
:1002100002010804020101020408102040800102CA
:1002200004081020408000000A0B02090C0D0E0883
:1002300007030401000000000000000000000000AF
:1002400000000000000000000000000000000000AE
:10025000000012111000000000000000000000006B
:10026000000000000000000000000000007CFE9282
:100270008AFE7C00008088FEFE80800000C4E6A22A
:10028000929E8C000044C69292FE6C00003028249E
:10029000FEFE2000004ECE8A8AFA7200007CFE929A
:1002A00092F66400000606E2FA1E0600006CFE925A
:1002B00092FE6C00004CDE9292FE7C000040E8A8AA
:1002C000A8F8F00000FEFE9090F060000070F88842
:1002D00088D850000060F09090FEFE000070F8A8F2
:1002E000A8B830000020FCFE222604000018BCA4A0
:1002F000A4FC7C0000FEFE1010F0E000000080F482
:10030000F48000000060E080FA7A000000FEFE2029
:1003100070D88800000000FEFE00000000F8F830F1
:10032000E030F8F800F8F81818F8F0000070F888D5
:1003300088F8700000FCFC24243C180000183C24C1
:10034000FCFC80C000F8F808083830000090A8A82D
:10035000A8A84800001010FCFC1010000078F880DD
:1003600080F8F800003070C0C07030000078F8806D
:10037000F080F8780088D87070D888000018B8A08D
:10038000A0F878000000C8E8B898000000FCFE1251
:1003900012FEFC0000FEFE9292FE6C00007CFE82CB
:1003A00082C6440000FEFE8282FE7C0000FEFE92B9
:1003B0009292820000FEFE1212120200007CFE8267
:1003C000A2E6640000FEFE1010FEFE00000082FEA9
:1003D000FE8200000060E082FE7E020000FEFE3829
:1003E0006CC6820000FEFE808080800000FEFE0C55
:1003F000180CFEFE00FEFE0C1830FEFE007CFE8295
:1004000082FE7C0000FEFE22223E1C00003C7E425A
:1004100062FEBC0000FEFE3272DE8C00004CDE92FA
:1004200092F66400000602FEFE020600007EFE80D8
:1004300080FEFE00003E7EC0C07E3E0000FEFE60EC
:100440003060FEFE00C6EE381038EEC6000E1EF01C
:10045000F01E0E0000C2E2B29A8E86008D059D0944
:1004600011241FBECFEFD1E2DEBFCDBF00E00CBF35
:1004700012E0A0E0B2E0EEE2F8E100E00BBF02C063
:1004800007900D92AE33B107D9F723E0AEE3B2E0A7
:1004900001C01D92A834B207E1F712E0CFE2D2E02A
:1004A00000E006C021970109802FFE010E94E709A4
:1004B000CE32D10780E00807A9F70E9414060C94F9
:1004C000050C0C940000AF92BF92CF92DF92EF9296
:1004D000FF920F931F93CF93DF936C017B018B01EE
:1004E000040F151FEB015E01AE18BF08C017D1073E
:1004F00059F06991D601ED91FC910190F081E02DC8
:10050000C6011995892B79F7C501DF91CF911F910C
:100510000F91FF90EF90DF90CF90BF90AF90089534
:10052000FC01538D448D252F30E0842F90E0821BF9
:10053000930B541710F0CF96089501970895FC017E
:10054000918D828D981761F0A28DAE0FBF2FB11DD6
:100550005D968C91928D9F5F9F73928F90E008952E
:100560008FEF9FEF0895FC01918D828D981731F0E8
:10057000828DE80FF11D858D90E008958FEF9FEF3C
:100580000895FC01918D228D892F90E0805C9F4F12
:10059000821B91098F739927089588E492E00E9445
:1005A000C10221E0892B09F420E0822F0895FC018B
:1005B000A48DA80FB92FB11DA35ABF4F2C91848DC4
:1005C00090E001968F739927848FA689B7892C9321
:1005D000A089B1898C91837080648C93938D848D74
:1005E000981306C00288F389E02D80818F7D808377
:1005F0000895EF92FF920F931F93CF93DF93EC0137
:1006000081E0888F9B8D8C8D98131AC0E889F989B9
:10061000808185FF15C09FB7F894EE89FF896083BC
:10062000E889F98980818370806480839FBF81E03D
:1006300090E0DF91CF911F910F91FF90EF9008957F
:10064000F62E0B8D10E00F5F1F4F0F731127E02E5A
:100650008C8D8E110CC00FB607FCFACFE889F98992
:10066000808185FFF5CFCE010E94D702F1CFEB8DBF
:10067000EC0FFD2FF11DE35AFF4FF0829FB7F89466
:100680000B8FEA89FB8980818062CFCFCF93DF9384
:10069000EC01888D8823B9F0AA89BB89E889F9899A
:1006A0008C9185FD03C0808186FD0DC00FB607FCCF
:1006B000F7CF8C9185FFF2CF808185FFEDCFCE0102
:1006C0000E94D702E9CFDF91CF91089580E090E0BA
:1006D000892B49F080E090E0892B29F00E940000EE
:1006E00081110E94000080E090E0892B29F00E9497
:1006F000CD0281110E94000080E090E0892B49F03A
:1007000080E090E0892B29F00E94000081110E9476
:10071000000080E090E0892B49F080E090E0892B98
:1007200029F00E94000081110C940000089581506E
:10073000823108F05AC0E82FF0E08827ED55FC4FD1
:100740008F4F0C94E709C303C703B503BB03BF0373
:10075000F503CA03D003D403DA03DE03E203E8039C
:10076000EC03F503F003F603FA03809180008F7722
:10077000809380000895809180008F7DF9CF8091D3
:100780008000877FF5CF84B58F7784BD089584B5C9
:100790008F7DFBCF8091B0008F778093B00008955C
:1007A0008091B0008F7DF9CF809190008F778093FA
:1007B00090000895809190008F7DF9CF80919000F6
:1007C000877FF5CF8091A0008F778093A000089558
:1007D0008091A0008F7DF9CF8091A000877FF5CF19
:1007E000809120018F7780932001089580912001CE
:1007F0008F7DF9CF80912001877FF5CF1F93CF9315
:10080000DF93282F30E0F901EA5DFD4F8491F90173
:10081000E052FE4FD491F901E656FE4FC491CC232D
:10082000A9F0162F81110E949703EC2FF0E0EE0F34
:10083000FF1FEA59FE4FA591B4918FB7F894EC9140
:10084000111108C0D095DE23DC938FBFDF91CF91CB
:100850001F910895DE2BF8CFCF93DF9390E0FC013A
:10086000E052FE4F249186569E4FFC0184918823CE
:10087000D1F090E0880F991FFC01E45BFE4FA59139
:10088000B491FC01EA59FE4FC591D49161110EC09B
:100890009FB7F8948C91E22FE0958E238C9328815A
:1008A000E223E8839FBFDF91CF9108958FB7F8943B
:1008B000EC91E22BEC938FBFF6CFCF92DF92EF92C9
:1008C000FF920F931F93CF93DF931F921F92CDB789
:1008D000DEB769834A83880F991F00914103109105
:1008E0004203000F111FEBEEF2E09F012B5E32403E
:1008F0002017310714F41192F8CF2981FC01E5513A
:10090000FD4F21838A81808360E080913F030E94B4
:10091000FE031016110604F501501109F801E55106
:10092000FD4FE080D0903D03C0903B0388E0F82E5F
:100930006E2D661F6627661F8C2D0E94FE03EE0C2F
:1009400061E08D2D0E94FE0360E08D2D0E94FE036C
:10095000FA94F110EDCFDDCF61E080913F030F906D
:100960000F90DF91CF911F910F91FF90EF90DF904B
:10097000CF900C94FE03EF92FF921F93CF93DF93DF
:10098000209141033091420382179307B4F4EC01A4
:1009900023E0880F991F2A95E1F79C0125503D4FD0
:1009A000790111E0F70111927F0140E0612FCE0142
:1009B0000E945D041F5F1930A9F7DF91CF911F914D
:1009C000FF90EF9008951F920F920FB60F9211248F
:1009D0000BB60F922F933F934F935F936F937F9339
:1009E0008F939F93AF93BF93EF93FF9388E492E02D
:1009F0000E94D702FF91EF91BF91AF919F918F918C
:100A00007F916F915F914F913F912F910F900BBE0E
:100A10000F900FBE0F901F9018951F920F920FB658
:100A20000F9211240BB60F922F938F939F93EF93F6
:100A3000FF93E0915802F09159028081E0915E02AB
:100A4000F0915F0282FD1DC09081809161028F5FF5
:100A50008F7320916202821741F0E0916102F0E011
:100A6000E85BFD4F958F80936102FF91EF919F911D
:100A70008F912F910F900BBE0F900FBE0F901F9074
:100A800018958081F2CF1F920F920FB60F9211240A
:100A90002F933F938F939F93AF93BF938091430284
:100AA00090914402A0914502B091460230914202D9
:100AB00023E0230F2D3758F50196A11DB11D20937A
:100AC00042028093430290934402A0934502B09364
:100AD000460280913E0290913F02A0914002B09167
:100AE00041020196A11DB11D80933E0290933F02E9
:100AF000A0934002B0934102BF91AF919F918F911B
:100B00003F912F910F900FBE0F901F90189526E8E0
:100B1000230F0296A11DB11DD2CF10924B0210924D
:100B20004A0288EE93E0A0E0B0E080934C029093FC
:100B30004D02A0934E02B0934F0282E192E0909357
:100B40004902809348028DEC90E090935502809387
:100B500054028CEC90E0909357028093560288ECFC
:100B600090E0909359028093580289EC90E0909322
:100B70005B0280935A028AEC90E090935D0280932E
:100B80005C028EEC90E090935F0280935E02109284
:100B9000610210926202109263021092640210923B
:100BA000E6021092E5021092E8021092E70210921B
:100BB000EA021092E90261E070E090E080E00E94B9
:100BC000140B0097E1F09093E6028093E5021092F7
:100BD000E8021092E7022091E9023091EA02232B09
:100BE00011F4FC0110821092EA021092E9026DE306
:100BF00072E08091E5029091E6020C94FE0B8091E8
:100C0000E5029091E602009711F00E948B0A109283
:100C1000E6021092E5021092EA021092E9021092A6
:100C2000E8021092E7020895CF93DF93CDB7DEB7C5
:100C30002E970FB6F894DEBF0FBECDBF789484B563
:100C4000826084BD84B5816084BD85B5826085BDC8
:100C500085B5816085BD80916E00816080936E0056
:100C60001092810080918100826080938100809148
:100C700081008160809381008091800081608093F9
:100C800080008091B10084608093B1008091B000B9
:100C900081608093B0008091910082608093910088
:100CA000809191008160809391008091900081609B
:100CB000809390008091A10082608093A100809138
:100CC000A10081608093A1008091A0008160809349
:100CD000A0008091210182608093210180912101F7
:100CE00081608093210180912001816080932001A7
:100CF00080917A00846080937A0080917A0082608B
:100D000080937A0080917A00816080937A0080914C
:100D10007A00806880937A001092C1000CE010E0A5
:100D200010933C0300933B038BE090E090933E03D1
:100D300080933D038DE090E09093400380933F03C8
:100D40001092430382E090E090934203809341032A
:100D500061E08CE00E942C0461E080913D030E94E0
:100D60002C0461E080913F030E942C0461E080919B
:100D70003F030E94FE0310933C0300933B03EBEF01
:100D8000F2E0119223E0EB33F207D9F710E000E034
:100D900080914103909142030817190744F540E000
:100DA0006FE0C8010E945D0480914103909142036D
:100DB000081719072CF447E06BE0C8010E945D0496
:100DC00040E069E0C8010E945D04C8010E94BB04C4
:100DD0008091410390914203081719072CF440E0D9
:100DE0006CE0C8010E945D040F5F1F4FD1CF10E07F
:100DF00000E0809141039091420308171907BCF469
:100E000041E06CE0C8010E945D0480914103909133
:100E10004203081719072CF448E06AE0C8010E9451
:100E20005D04C8010E94BB040F5F1F4FE2CF61E069
:100E300087E30E942C0460E08AE00E942C0460E0BA
:100E400088E00E942C0461E087E00E942C0461E0AD
:100E500086E00E942C0461E085E00E942C0461E0A1
:100E600084E00E942C0461E083E00E942C0461E095
:100E700082E00E942C0461E089E00E942C0460E082
:100E800086E30E942C0461E08DE00E942C04E09136
:100E90005802F091590282E08083E0915402F0916F
:100EA00055021082E0915602F09157028FEC808338
:100EB00010926002E0915C02F0915D0286E0808316
:100EC000E0915A02F0915B02808180618083E09121
:100ED0005A02F0915B02808188608083E0915A021F
:100EE000F0915B02808180688083E0915A02F091EA
:100EF0005B0280818F7D808344244A9463E0562E78
:100F0000612C712C10E000E080914103909142032C
:100F10000817190734F4C8010E94BB040F5F1F4F64
:100F2000F3CF80917B00877F80937B0080E4809368
:100F30007C0080917A00806480937A0080917A00AE
:100F400086FDFCCF6091780000917900102F062F6C
:100F500061E087E30E94FE03012E000C220B330B9D
:100F6000C901B80152E0660F771F881F991F5A9573
:100F7000D1F7A30192010E94A6092F5F3F4F4F4F67
:100F80005F4F2130310581F560E087E00E94FE036C
:100F900061E086E00E94FE0361E085E00E94FE03BE
:100FA00060E084E00E94FE0360E083E00E94FE03B4
:100FB00060E082E00E94FE0360E089E00E94FE03A0
:100FC000809147028111F5C010E000E0809141035B
:100FD00090914203081719070CF05FC0C8010E94E6
:100FE000BB040F5F1F4FF2CF22303105D1F461E017
:100FF00087E00E94FE0361E086E00E94FE0360E05D
:1010000085E00E94FE0361E084E00E94FE0361E04F
:1010100083E00E94FE0360E082E00E94FE0361E044
:10102000CCCF2330310591F461E087E00E94FE03CC
:1010300061E086E00E94FE0361E085E00E94FE031D
:1010400061E084E00E94FE0360E0E2CF24303105DD
:10105000B1F460E087E00E94FE0361E086E00E9458
:10106000FE0361E085E00E94FE0360E084E00E94F0
:10107000FE0360E083E00E94FE0361E0CDCF61E00B
:1010800087E00E94FE0360E086E00E94FE0361E0CC
:1010900085E00E94FE0361E0E9CF40E252E05A871A
:1010A0004987F12CE12CE985FA858191FA87E98756
:1010B00098E0E6E0F2E0DE01119601900D929A953B
:1010C000E1F79FEB980F9A3108F076C0F8E08F02B5
:1010D000C0011124DE01119630E020E08C579E4FB4
:1010E000FC01E20FF31FE491ED932F5F3F4F283097
:1010F0003105B1F78091430381119CC0AE014F5F70
:101100005F4F6A01570158E0A50EB11C8701C80165
:1011100043E0969587954A95E1F748EF9C01420395
:10112000B001439F700D1124600F711F2091410386
:101130003091420382179307B4F4F60141916F0195
:10114000FC0133E0EE0FFF1F3A95E1F7E551FD4F4B
:10115000E60FF71F408B6F5F0E945D040F5F1F4F0C
:10116000A016B106A1F698E0E90EF11CE8EEEE1625
:10117000F10409F098CFEEE2F2E08491E8EEF1E0BC
:101180001491E2EAF1E00491002379F081110E94C8
:101190009703E02FF0E0EE0FFF1FE058FE4FA59100
:1011A000B4918C91182381E009F480E081708093E0
:1011B00047020E946603A6CE9FE9980F9A31A8F4D1
:1011C00028E08202C0011124DE01119630E020E007
:1011D0008C549040FC01E20FF31FE491ED932F5FDC
:1011E0003F4F28303105B1F785CF90ED980F9A30F9
:1011F000A8F438E08302C0011124DE01119630E02A
:1012000020E084519F4FFC01E20FF31FE491ED9326
:101210002F5F3F4F28303105B1F76CCF803209F096
:1012200069CF19821A821B821C821D821E821F8234
:10123000188660CF8091410390914203019723E08B
:10124000880F991F2A95E1F79C012E193F093C87C9
:101250002B8788E090E040914103509142038A013E
:10126000015011092B853C85281B390B37FF05C020
:1012700001501109285F3F4FF9CF0F3F6FEF16075D
:101280000CF471CFFC0131975F010F3F100709F497
:101290004DC0041715070CF049C0283031050CF07B
:1012A00045C0E1E0F0E0EC0FFD1FEA0DFB1D2080E2
:1012B000A80193E0440F551F9A95E1F75E874D878B
:1012C00080E890E002C0959587952A95E2F7882EF0
:1012D000982E9094D12CC12C312C80914103909167
:1012E000420308171907DCF4ED85FE85EC0DFD1DA2
:1012F000E551FD4F808927E030E02C193D09B1010F
:1013000002C0759567952A95E2F760FF14C0882999
:10131000808B408961E06C0DC8010E945D047FEF05
:10132000C71AD70A88E0C816D104B9F6C5010097D4
:1013300009F091CF18CF8921EBCF8091E5029091F0
:10134000E602009711F00C948B0A0895052E97FB86
:101350001EF400940E94BD0957FD07D00E94C509E4
:1013600007FC03D04EF40C94BD0950954095309580
:1013700021953F4F4F4F5F4F089590958095709501
:1013800061957F4F8F4F9F4F0895A1E21A2EAA1BA0
:10139000BB1BFD010DC0AA1FBB1FEE1FFF1FA21725
:1013A000B307E407F50720F0A21BB30BE40BF50B22
:1013B000661F771F881F991F1A9469F760957095AB
:1013C000809590959B01AC01BD01CF010895EE0F72
:1013D000FF1F881F8BBF0790F691E02D19940F9384
:1013E0001F93CF93DF938230910510F482E090E059
:1013F000E0914603F091470330E020E0B0E0A0E048
:10140000309799F42115310509F44AC0281B390B8E
:1014100024303105D8F58A819B816115710589F1E8
:10142000FB0193838283FE0111C0408151810281BF
:10143000138148175907E0F04817590799F4109796
:1014400061F012960C93129713961C933296CF016B
:10145000DF91CF911F910F91089500934603109350
:101460004703F4CF2115310551F04217530738F0E7
:10147000A901DB019A01BD01DF01F801C1CFEF0134
:10148000F9CF9093470380934603CDCFFE01E20F3F
:10149000F31F819391932250310939832883D7CF49
:1014A0002091440330914503232B41F42091020203
:1014B00030910302309345032093440320910002AE
:1014C000309101022115310541F42DB73EB740910D
:1014D000040250910502241B350BE0914403F09166
:1014E0004503E217F307A0F42E1B3F0B281739071B
:1014F00078F0AC014E5F5F4F2417350748F04E0F70
:101500005F1F5093450340934403819391939FCF72
:10151000F0E0E0E09CCFCF93DF930097E9F0FC018F
:10152000329713821282A0914603B0914703ED01D6
:1015300030E020E01097A1F420813181820F931FC9
:1015400020914403309145032817390709F061C001
:10155000F0934503E0934403DF91CF910895EA01AE
:10156000CE17DF07E8F54A815B819E0141155105E1
:10157000B1F7E901FB83EA8349915991C40FD51F63
:10158000EC17FD0761F4808191810296840F951F0D
:10159000E90199838883828193819B838A83F0E028
:1015A000E0E012968D919C9113970097B9F52D91DB
:1015B0003C911197CD010296820F931F2091440315
:1015C000309145032817390739F6309751F51092B5
:1015D000470310924603B0934503A0934403BCCF46
:1015E000D383C28340815181840F951FC817D907C7
:1015F00061F44E5F5F4F88819981480F591F518375
:1016000040838A819B81938382832115310509F070
:10161000B0CFF0934703E09346039ECFFD01DC017A
:10162000C0CF13821282D7CF4F925F926F927F9278
:101630008F929F92AF92BF92CF92DF92EF92FF92E2
:101640000F931F93CF93DF938C01009799F4CB01F5
:10165000DF91CF911F910F91FF90EF90DF90CF908E
:10166000BF90AF909F908F907F906F905F904F90C2
:101670000C94EF09FC01E60FF71F9C012250310981
:10168000E217F30708F4AEC0D901CD91DC911197B0
:10169000C617D70720F1C530D10578F0CE010497E1
:1016A0008617970750F0C61BD70B2297C193D1938B
:1016B0006D937C93CF010E948B0AC801DF91CF917B
:1016C0001F910F91FF90EF90DF90CF90BF90AF9060
:1016D0009F908F907F906F905F904F9008955B01E7
:1016E000AC1ABD0A4C018C0E9D1EA0914603B09110
:1016F0004703512C412CF12CE12C109731F58091AE
:101700004403909145038815990509F05CC046167D
:10171000570608F058C0809100029091010200978E
:1017200041F48DB79EB74091040250910502841B8D
:10173000950BE817F90708F055C0F0934503E093BF
:101740004403F90171836083B8CF8D919C91119707
:1017500012966C90129713967C901397A815B90562
:1017600059F56C0142E0C40ED11CCA14DB0420F10F
:10177000AC014A195B09DA011296159780F0628272
:10178000738251834083D9016D937C93E114F104FA
:1017900071F0D7011396FC93EE9312978ECF229699
:1017A0008C0F9D1FF90191838083F301EFCFF0939C
:1017B0004703E093460381CF4816590608F42C01ED
:1017C0007D01D3019ACFCB010E94EF097C010097E4
:1017D00049F0AE01B8010E94F50BC8010E948B0AC6
:1017E00087016BCF10E000E068CFFB01DC0102C095
:1017F00001900D9241505040D8F70895FB01DC0153
:1018000001900D920020E1F7089512E0CFE2D2E0BE
:1018100000E006C0802FFE010E94E7092196011D0D
:0E182000C033D10780E00807A9F7F894FFCF86
:10182E0000004803800000082A1C771C2A080000CC
:10183E000000F902630290024603C1029F02B30246
:10184E002A503120E2809320475255504F20313399
:0E185E00202D2053454343494F4E20412A0080
:00000001FF
