:100000000C9430020C9461020C9461020C94610215
:100010000C9461020C9461020C9461020C946102D4
:100020000C9461020C9461020C9461020C946102C4
:100030000C9461020C9461020C9461020C946102B4
:100040000C9461020C9461020C9461020C946102A4
:100050000C9461020C9461020C9461020C94E80807
:100060000C9461020C94B2080C9488080C94610200
:100070000C9461020C9461020C9461020C94610274
:100080000C9461020C9461020C9461020C94610264
:100090000C9461020C9461020C9461020C94610254
:1000A0000C9461020C9461020C9461020C94610244
:1000B0000C9461020C9461020C9461020C94610234
:1000C0000C9461020C9461020C9461020C94610224
:1000D0000C9461020C9461020C9461020C94610214
:1000E0000C9461020C948F030C9464020C9413041E
:1000F0000C94FE030C9499020C9427040C943E0477
:100100000C9423040C9431040C940A030C94A8025C
:100110000C942B040C9435040C94FC020C943904BC
:100120000C9408040C9443040C940C040C941904CF
:100130000C9410040C943F040C9432090C94420368
:100140000C9404040C941D040C94280C0000210051
:10015000240027002A002D00300033000101000098
:10016000040107010A0100002200250028002B00DD
:100170002E003100340002010000050108010B01CE
:10018000000020002300260029002C002F00320050
:100190000001000003010601090105050505070529
:1001A00008080808020202020A0A080804040404F3
:1001B000010101010101010103030303030303031F
:1001C000040707070C0C0C0C0C0C0C0C02020202AE
:1001D00006060606060606060B0B0B0B0B0B0B0B97
:1001E0000102102020080810204010204080020149
:1001F000020108040201010204081020408080402E
:10020000201008040201800402018040201008042C
:1002100002010804020101020408102040800102CA
:1002200004081020408000000A0B02090C0D0E0883
:1002300007030401000000000000000000000000AF
:1002400000000000000000000000000000000000AE
:10025000000012111000000000000000000000006B
:10026000000000000000000000000000007CFE9282
:100270008AFE7C00008088FEFE80800000C4E6A22A
:10028000929E8C000044C69292FE6C00003028249E
:10029000FEFE2000004ECE8A8AFA7200007CFE929A
:1002A00092F66400000606E2FA1E0600006CFE925A
:1002B00092FE6C00004CDE9292FE7C000040E8A8AA
:1002C000A8F8F00000FEFE9090F060000070F88842
:1002D00088D850000060F09090FEFE000070F8A8F2
:1002E000A8B830000020FCFE222604000018BCA4A0
:1002F000A4FC7C0000FEFE1010F0E000000080F482
:10030000F48000000060E080FA7A000000FEFE2029
:1003100070D88800000000FEFE00000000F8F830F1
:10032000E030F8F800F8F81818F8F0000070F888D5
:1003300088F8700000FCFC24243C180000183C24C1
:10034000FCFC80C000F8F808083830000090A8A82D
:10035000A8A84800001010FCFC1010000078F880DD
:1003600080F8F800003070C0C07030000078F8806D
:10037000F080F8780088D87070D888000018B8A08D
:10038000A0F878000000C8E8B898000000FCFE1251
:1003900012FEFC0000FEFE9292FE6C00007CFE82CB
:1003A00082C6440000FEFE8282FE7C0000FEFE92B9
:1003B0009292820000FEFE1212120200007CFE8267
:1003C000A2E6640000FEFE1010FEFE00000082FEA9
:1003D000FE8200000060E082FE7E020000FEFE3829
:1003E0006CC6820000FEFE808080800000FEFE0C55
:1003F000180CFEFE00FEFE0C1830FEFE007CFE8295
:1004000082FE7C0000FEFE22223E1C00003C7E425A
:1004100062FEBC0000FEFE3272DE8C00004CDE92FA
:1004200092F66400000602FEFE020600007EFE80D8
:1004300080FEFE00003E7EC0C07E3E0000FEFE60EC
:100440003060FEFE00C6EE381038EEC6000E1EF01C
:10045000F01E0E0000C2E2B29A8E86003209280C0D
:1004600011241FBECFEFD1E2DEBFCDBF00E00CBF35
:1004700012E0A0E0B2E0E0ECFDE100E00BBF02C062
:1004800007900D92AA33B107D9F723E0AAE3B2E0AF
:1004900001C01D92A834B207E1F712E0CFE2D2E02A
:1004A00000E006C021970109802FFE010E94950CF3
:1004B000CE32D10780E00807A9F70E94AA090C9460
:1004C000CE0E0C9400000895AF92BF92CF92DF92AF
:1004D000EF92FF920F931F93CF93DF936C017B01F9
:1004E0008B01040F151FEB015E01AE18BF08C0178A
:1004F000D10759F06991D601ED91FC910190F081FD
:10050000E02DC6011995892B79F7C501DF91CF91AF
:100510001F910F91FF90EF90DF90CF90BF90AF9021
:10052000089542E050E060E272E088E492E00C94CA
:100530006402FC01538D448D252F30E0842F90E020
:10054000821B930B541710F0CF96089501970895CE
:10055000FC01918D828D981761F0A28DAE0FBF2F97
:10056000B11D5D968C91928D9F5F9F73928F90E0ED
:1005700008958FEF9FEF08952FB7F894809144026C
:1005800090914502A0914602B09147022FBF8093FF
:10059000500290935102A0935202B093530288E408
:1005A00092E00E94A80297FF26C02FB7F89480918E
:1005B000440290914502A0914602B09147022FBF9C
:1005C0004091500250915102609152027091530239
:1005D000841B950BA60BB70B40914C0250914D021A
:1005E00060914E0270914F0284179507A607B707D6
:1005F000B0F28FEF9FEF0895FC01918D828D9817D7
:1006000031F0828DE80FF11D858D90E008958FEF18
:100610009FEF0895FC01918D228D892F90E0805CE1
:100620009F4F821B91098F739927089588E492E068
:100630000E940A0321E0892B09F420E0822F08950B
:10064000FC01A48DA80FB92FB11DA35ABF4F2C9147
:10065000848D90E001968F739927848FA689B7893E
:100660002C93A089B1898C91837080648C93938D35
:10067000848D981306C00288F389E02D80818F7DD8
:1006800080830895EF92FF920F931F93CF93DF9390
:10069000EC0181E0888F9B8D8C8D98131AC0E889BE
:1006A000F989808185FF15C09FB7F894EE89FF898D
:1006B0006083E889F98980818370806480839FBF2B
:1006C00081E090E0DF91CF911F910F91FF90EF902B
:1006D0000895F62E0B8D10E00F5F1F4F0F7311273B
:1006E000E02E8C8D8E110CC00FB607FCFACFE88976
:1006F000F989808185FFF5CFCE010E942003F1CFDB
:10070000EB8DEC0FFD2FF11DE35AFF4FF0829FB7E9
:10071000F8940B8FEA89FB8980818062CFCFCF93D9
:10072000DF93EC01888D8823B9F0AA89BB89E88919
:10073000F9898C9185FD03C0808186FD0DC00FB6BF
:1007400007FCF7CF8C9185FFF2CF808185FFEDCF3D
:10075000CE010E942003E9CFDF91CF91089580E080
:1007600090E0892B29F00E94160381110E9400005D
:1007700080E090E0892B49F080E090E0892B29F01F
:100780000E94000081110E94000080E090E0892B0F
:1007900049F080E090E0892B29F00E94000081114F
:1007A0000E94000080E090E0892B49F080E090E01A
:1007B000892B29F00E94000081110C9400000895FB
:1007C0008150823108F05AC0E82FF0E08827E451C8
:1007D000FC4F8F4F0C94950C0C041004FE03040482
:1007E00008043E04130419041D04230427042B04E5
:1007F000310435043E0439043F04430480918000F1
:100800008F77809380000895809180008F7DF9CF4D
:1008100080918000877FF5CF84B58F7784BD089560
:1008200084B58F7DFBCF8091B0008F778093B0002F
:1008300008958091B0008F7DF9CF809190008F77DF
:10084000809390000895809190008F7DF9CF8091E2
:100850009000877FF5CF8091A0008F778093A000D4
:1008600008958091A0008F7DF9CF8091A000877FAF
:10087000F5CF809120018F7780932001089580919A
:1008800020018F7DF9CF80912001877FF5CFCF9315
:10089000DF93282F30E0F901EA5DFD4F8491F901E3
:1008A000E052FE4FD491F901E656FE4FC491CC239D
:1008B000A1F081110E94E003EC2FF0E0EE0FFF1F8A
:1008C000E058FE4FA591B491EC91ED2381E090E0CA
:1008D00009F480E0DF91CF91089580E090E0FACFB5
:1008E0001F93CF93DF93282F30E0F901EA5DFD4F8E
:1008F0008491F901E052FE4FD491F901E656FE4F82
:10090000C491CC23A9F0162F81110E94E003EC2F93
:10091000F0E0EE0FFF1FEA59FE4FA591B4918FB79B
:10092000F894EC91111108C0D095DE23DC938FBFB1
:10093000DF91CF911F910895DE2BF8CFCF93DF93F6
:1009400090E0FC01E052FE4F249186569E4FFC0140
:1009500084918823D1F090E0880F991FFC01E45B1B
:10096000FE4FA591B491FC01EA59FE4FC591D49177
:1009700061110EC09FB7F8948C91E22FE0958E2301
:100980008C932881E223E8839FBFDF91CF91089564
:100990008FB7F894EC91E22BEC938FBFF6CF3FB773
:1009A000F89480913C0290913D02A0913E02B0915A
:1009B0003F0226B5A89B05C02F3F19F00196A11D47
:1009C000B11D3FBFBA2FA92F982F8827BC01CD0199
:1009D000620F711D811D911D42E0660F771F881FF8
:1009E000991F4A95D1F708958F929F92AF92BF9227
:1009F000CF92DF92EF92FF926B017C010E94CF04B5
:100A00004B015C01C114D104E104F104B9F00E946E
:100A1000CF04681979098A099B09683E73408105EA
:100A2000910580F321E0C21AD108E108F10888EEAF
:100A3000880E83E0981EA11CB11CE4CFFF90EF90BC
:100A4000DF90CF90BF90AF909F908F90089580914E
:100A500042029091430281309105E1F460E087E029
:100A60000E94700461E086E00E94700461E085E00D
:100A70000E94700460E084E00E94700460E083E003
:100A80000E94700460E082E00E94700460E089E0EF
:100A90000C94700482309105D1F461E087E00E94EB
:100AA000700461E086E00E94700460E085E00E94CE
:100AB000700461E084E00E94700461E083E00E94C1
:100AC000700460E082E00E94700461E0E0CF833057
:100AD000910591F461E087E00E94700461E086E096
:100AE0000E94700461E085E00E94700461E084E08F
:100AF0000E94700460E0E2CF0497B1F460E087E008
:100B00000E94700461E086E00E94700461E085E06C
:100B10000E94700460E084E00E94700460E083E062
:100B20000E94700461E0CECF61E087E00E94700413
:100B300060E086E00E94700461E085E00E9470043D
:100B400061E0E9CFCF92DF92EF92FF920F931F9374
:100B5000CF93DF931F921F92CDB7DEB769834A838D
:100B6000880F991F0091410310914203000F111F3C
:100B7000EBEEF2E09F012B5E32402017310714F4B8
:100B80001192F8CF2981FC01E551FD4F21838A8123
:100B9000808360E080913F030E947004101611066C
:100BA00004F501501109F801E551FD4FE080D090A6
:100BB0003D03C0903B0388E0F82E6E2D661F66272C
:100BC000661F8C2D0E947004EE0C61E08D2D0E943A
:100BD000700460E08D2D0E947004FA94F110EDCF46
:100BE000DDCF61E080913F030F900F90DF91CF91B7
:100BF0001F910F91FF90EF90DF90CF900C947004B5
:100C0000EF92FF921F93CF93DF9320914103309196
:100C1000420382179307B4F4EC0123E0880F991F75
:100C20002A95E1F79C0125503D4F790111E0F7012C
:100C300011927F0140E0612FCE010E94A2051F5F4B
:100C40001930A9F7DF91CF911F91FF90EF90089590
:100C5000CF93DF93D0E0C0E08091410390914203B5
:100C6000C817D9072CF4CE010E9400062196F4CFB4
:100C7000DF91CF9108952F923F924F925F926F92A2
:100C80007F928F929F92AF92BF92CF92DF92EF921C
:100C9000FF920F931F93CF93DF9300D000D000D02B
:100CA0001F92CDB7DEB78B0198E0E6E0F2E0DE01FF
:100CB000119601900D929A95E1F79FEB980F9A315A
:100CC00038F528E08202C0011124DE01119630E0DF
:100CD00020E08C579E4FFC01E20FF31FE491ED934F
:100CE0002F5F3F4F28303105B1F7809143038111C9
:100CF0008DC0F12CE12CB8016E0D7F1D90E080E0DD
:100D0000683071050CF442C0019668507109F8CF43
:100D10009FE9980F9A31A8F448E08402C001112499
:100D2000DE01119630E020E08C549040FC01E20F8F
:100D3000F31FE491ED932F5F3F4F28303105B1F75A
:100D4000D4CF90ED980F9A30A8F458E08502C001F6
:100D50001124DE01119630E020E084519F4FFC0108
:100D6000E20FF31FE491ED932F5F3F4F28303105E1
:100D7000B1F7BBCF803209F0B8CF19821A821B823B
:100D80001C821D821E821F821886AFCF20914103D4
:100D9000309142038217930704F568307105A8F477
:100DA000E1E0F0E0EC0FFD1FEE0DFF1D4081FC01C6
:100DB00053E0EE0FFF1F5A95E1F7E551FD4FE60FA7
:100DC000F71F408B6F5F0E94A2056FEFE61AF60ACD
:100DD00078E0E716F10409F08ECF2A960FB6F89462
:100DE000DEBF0FBECDBFDF91CF911F910F91FF905E
:100DF000EF90DF90CF90BF90AF909F908F907F90BB
:100E00006F905F904F903F902F90089520904103F6
:100E10003090420381E0281A310893E0220C331C01
:100E20009A95E1F7201A310A88E090E020E8422EF6
:100E3000512C37E0632E712C4091410350914203B5
:100E40008A01015011099101281B390B37FF05C098
:100E500001501109285F3F4FF9CF0F3F6FEF160781
:100E60000CF4BBCFBC01615071097B010F3F10072F
:100E700009F44AC0041715070CF046C028303105A4
:100E80000CF042C0E1E0F0E0EC0FFD1FEE0DFF1DA5
:100E9000A080480183E0880C991C8A95E1F7C20183
:100EA00002C0959587952A95E2F78987282F209586
:100EB0002A87D12CC12CB12C8091410390914203FF
:100EC00008171907D4F4F401EC0DFD1DE551FD4F91
:100ED000808993012C193D09A50102C055954795BC
:100EE0002A95E2F740FF15C05985852B808B4089F4
:100EF00061E06C0DC8010E94A2057FEFC71AD70AF6
:100F000088E0C816D104C1F6C701009709F094CF54
:100F100064CF6A858623EACFCF92DF92EF92FF9269
:100F20000F931F93CF93DF93E090E902F090EA02D2
:100F3000D0E0C0E008EE13E0CE15DF056CF50E94AE
:100F400028068091E9029091EA02C817D90730F487
:100F5000E091E502F091E6023097D9F410923A025E
:100F6000EAE3F2E070E060E080810E943B0660917D
:100F7000420270914302C8010E94810C6B010E94E1
:100F80002705B601DD0C880B990B0E94F40421960D
:100F9000D3CFEC0FFD1FE6CFDF91CF911F910F91C3
:100FA000FF90EF90DF90CF900895EF92FF920F9314
:100FB0001F93CF93DF93EC018B017C01FE01019025
:100FC0000020E9F73197EC1BFD0BC7018C1B9D0B33
:100FD0008E179F0748F4B801F70181917F010E94A5
:100FE0003B06085F1F4FEACFDF91CF911F910F9112
:100FF000FF90EF900895AF92BF92CF92DF92EF9261
:10100000FF920F931F93CF93DF930E9428060091C6
:10101000E5021091E6021093410200934002E09035
:101020004202F09043028EE00E944704EC01892BBB
:10103000D9F40E942806BE01C8010E94D50764EFBA
:1010400071E080E090E00E94F4042196CA30D1055E
:1010500091F7DF91CF911F910F91FF90EF90DF906B
:10106000CF90BF90AF90089588EE93E0B7010E94B3
:10107000810C6B01770FEE08FF08C0914103D091FE
:10108000420383E0CC0FDD1F8A95E1F7F801019060
:101090000020E9F731975801AE1ABF0A93E0AA0C75
:1010A000BB1C9A95E1F7AC16BD069CF6BE01C801C3
:1010B0000E94D507C701B6010E94F4042197F3CF1F
:1010C0000F931F93CF93DF93EC0188819981009751
:1010D00059F02A813B812617370730F081E0DF91F4
:1010E000CF911F910F9108958B016F5F7F4F0E94E9
:1010F000DD0D009759F0998388831B830A832C8127
:101100003D81232B59F7FC011082E8CF80E0E7CF27
:101110001F920F920FB60F9211240BB60F922F93BE
:101120003F934F935F936F937F938F939F93AF936F
:10113000BF93EF93FF9388E492E00E942003FF9116
:10114000EF91BF91AF919F918F917F916F915F913F
:101150004F913F912F910F900BBE0F900FBE0F90AC
:101160001F9018951F920F920FB60F9211240BB675
:101170000F922F938F939F93EF93FF93E0915802D9
:10118000F09159028081E0915E02F0915F0282FD50
:101190001DC09081809161028F5F8F7320916202E8
:1011A000821741F0E0916102F0E0E85BFD4F958F1E
:1011B00080936102FF91EF919F918F912F910F90FA
:1011C0000BBE0F900FBE0F901F9018958081F2CF2D
:1011D0001F920F920FB60F9211242F933F938F936C
:1011E0009F93AF93BF938091440290914502A09149
:1011F0004602B091470230913B0223E0230F2D3786
:1012000058F50196A11DB11D20933B028093440225
:1012100090934502A0934602B093470280913C020E
:1012200090913D02A0913E02B0913F020196A11D16
:10123000B11D80933C0290933D02A0933E02B09377
:101240003F02BF91AF919F918F913F912F910F904E
:101250000FBE0F901F90189526E8230F0296A11D30
:10126000B11DD2CF10924B0210924A0288EE93E049
:10127000A0E0B0E080934C0290934D02A0934E0208
:10128000B0934F0282E192E090934902809348022A
:1012900085EC90E0909355028093540284EC90E0AA
:1012A000909357028093560280EC90E090935902FD
:1012B0008093580281EC90E090935B0280935A02F5
:1012C00082EC90E090935D0280935C0286EC90E06B
:1012D00090935F0280935E0210926102109262020C
:1012E00010926302109264021092E6021092E502DC
:1012F0001092E8021092E7021092EA021092E902BC
:1013000065E170E085EE92E00E9460082091E502C0
:101310003091E602811113C02115310519F0C90180
:101320000E94540D1092E6021092E5021092EA0219
:101330001092E9021092E8021092E702089585E106
:1013400090E09093EA028093E90263E272E0C901BF
:101350000C94C70ECF93DF9300D000D01F921F9242
:10136000CDB7DEB7789484B5826084BD84B58160E2
:1013700084BD85B5826085BD85B5816085BD809160
:101380006E00816080936E001092810080918100D8
:1013900082608093810080918100816080938100D0
:1013A000809180008160809380008091B100846092
:1013B0008093B1008091B00081608093B0008091F3
:1013C0009100826080939100809191008160809370
:1013D0009100809190008160809390008091A100A5
:1013E00082608093A1008091A10081608093A10020
:1013F0008091A00081608093A00080912101826093
:10140000809321018091210181608093210180914D
:10141000200181608093200180917A008460809314
:101420007A0080917A00826080937A0080917A00BD
:10143000816080937A0080917A00806880937A003E
:101440001092C1000CE010E010933C0300933B03AA
:101450008BE090E090933E0380933D038DE090E01D
:101460009093400380933F031092430382E090E007
:10147000909342038093410361E08CE00E949E04BC
:1014800061E080913D030E949E0461E080913F03F2
:101490000E949E0461E080913F030E9470041093BB
:1014A0003C0300933B03EBEFF2E0119283E0EB335C
:1014B000F807D9F710E000E08091410390914203D2
:1014C0000817190744F540E06FE0C8010E94A20523
:1014D0008091410390914203081719072CF447E0CB
:1014E0006BE0C8010E94A20540E069E0C8010E94CB
:1014F000A205C8010E940006809141039091420319
:10150000081719072CF440E06CE0C8010E94A205FE
:101510000F5F1F4FD1CF10E000E080914103909109
:10152000420308171907BCF441E06CE0C8010E94AF
:10153000A2058091410390914203081719072CF4EA
:1015400048E06AE0C8010E94A205C8010E940006A6
:101550000F5F1F4FE2CF61E087E30E949E0460E0CF
:101560008AE00E949E0460E088E00E949E0461E0A0
:1015700087E00E949E0461E086E00E949E0461E094
:1015800085E00E949E0461E084E00E949E0461E088
:1015900083E00E949E0461E082E00E949E0461E07C
:1015A00089E00E949E0460E086E30E949E0460E061
:1015B0008AE00E949E0460E08EE00E949E0461E04A
:1015C0008FE00E949E0461E080E10E949E0461E041
:1015D00081E10E949E0461E08DE00E949E04E09102
:1015E0005802F091590282E08083E0915402F09118
:1015F00055021082E0915602F09157028FEC8083E1
:1016000010926002E0915C02F0915D0286E08083BE
:10161000E0915A02F0915B02808180618083E091C9
:101620005A02F0915B02808188608083E0915A02C7
:10163000F0915B02808180688083E0915A02F09192
:101640005B0280818F7D808380E4F82E88248A94D9
:1016500093E0992EA12CB12C80917B00877F809301
:101660007B00F0927C0080917A00806480937A0005
:1016700080917A0086FDFCCF80917800A09179005E
:10168000BA2FA82F25E030E00E949D0CA5019401FF
:101690000E94310C2F5F3F4F4F4F5F4F30934302FB
:1016A000209342020E94270588E00E944704892B6C
:1016B000A9F48AE00E944704019769F40E948C070C
:1016C00088E00E94470488E00E9447040E942705A2
:1016D0000E94AF03C1CF0E94FB07F2CF61E081E11E
:1016E0000E94700488E492E00E940A03892B09F4A6
:1016F00081C01A8219821C821B821E821D8270E0A8
:1017000060E0CE0101960E94600829813A81811132
:101710002BC02115310519F0C9010E94540D1A8200
:1017200019821E821D821C821B820E94BC0297FDB0
:1017300023C08F8318860D811E810F5F1F4FB80154
:10174000CE0101960E946008882379F329813A81AD
:101750008D819E81BE01695F7F4F820F931F0E9422
:10176000C70E1E830D83E1CF1E821D8262E272E0EE
:10177000C9010E94C70ED9CF8091E5029091E6027F
:10178000009709F44BC069817A816115710509F4EC
:1017900043C04091E7025091E8022D813E814217FB
:1017A0005307D0F10E94C70E8D819E819093EA026B
:1017B0008093E9021E821D8289819A81009711F02F
:1017C0000E94540D8091E5029091E60290934102AF
:1017D000809340020E9491024091E9025091EA02F6
:1017E0006091E5027091E60288E492E00E94640252
:1017F0000E9491020E9428068091E5029091E602E3
:1018000090934102809340028EE00E94470401972A
:10181000E1F40E948C075ACF0E94540D89819A816D
:101820009093E6028093E5028B819C819093E8027D
:101830008093E7028D819E819093EA028093E90272
:101840001A8219821C821B82B5CF0E94FB073ECFF1
:101850008091E5029091E602009711F00C94540DEE
:101860000895052E97FB1EF400940E94480C57FD26
:1018700007D00E94500C07FC03D04EF40C94480C87
:1018800050954095309521953F4F4F4F5F4F0895AC
:1018900090958095709561957F4F8F4F9F4F0895DC
:1018A000A1E21A2EAA1BBB1BFD010DC0AA1FBB1F64
:1018B000EE1FFF1FA217B307E407F50720F0A21BD6
:1018C000B30BE40BF50B661F771F881F991F1A9443
:1018D00069F760957095809590959B01AC01BD016D
:1018E000CF010895A29FB001B39FC001A39F700DC7
:1018F000811D1124911DB29F700D811D1124911D18
:10190000089597FB072E16F4009407D077FD09D0B1
:101910000E94A40C07FC05D03EF4909581959F4F42
:101920000895709561957F4F0895EE0FFF1F881FF2
:101930008BBF0790F691E02D19940E94720CB7FFAF
:101940000895821B930B0895AA1BBB1B51E107C08E
:10195000AA1FBB1FA617B70710F0A61BB70B881F3F
:10196000991F5A95A9F780959095BC01CD010895CE
:101970000F931F93CF93DF938230910510F482E091
:1019800090E0E0914603F091470330E020E0B0E0C2
:10199000A0E0309799F42115310509F44AC0281BBD
:1019A000390B24303105D8F58A819B816115710589
:1019B00089F1FB0193838283FE0111C04081518133
:1019C0000281138148175907E0F04817590799F425
:1019D000109761F012960C93129713961C933296FF
:1019E000CF01DF91CF911F910F910895009346038E
:1019F00010934703F4CF2115310551F042175307D7
:101A000038F0A901DB019A01BD01DF01F801C1CF66
:101A1000EF01F9CF9093470380934603CDCFFE01AA
:101A2000E20FF31F81939193225031093983288368
:101A3000D7CF2091440330914503232B41F42091CB
:101A40000202309103023093450320934403209116
:101A50000002309101022115310541F42DB73EB746
:101A60004091040250910502241B350BE091440380
:101A7000F0914503E217F307A0F42E1B3F0B281744
:101A8000390778F0AC014E5F5F4F2417350748F0F7
:101A90004E0F5F1F509345034093440381939193EE
:101AA0009FCFF0E0E0E09CCFCF93DF930097E9F089
:101AB000FC01329713821282A0914603B091470332
:101AC000ED0130E020E01097A1F420813181820FF8
:101AD000931F20914403309145032817390709F0DB
:101AE00061C0F0934503E0934403DF91CF910895E3
:101AF000EA01CE17DF07E8F54A815B819E014115B7
:101B00005105B1F7E901FB83EA8349915991C40F6B
:101B1000D51FEC17FD0761F4808191810296840F37
:101B2000951FE90199838883828193819B838A83AE
:101B3000F0E0E0E012968D919C9113970097B9F533
:101B40002D913C911197CD010296820F931F209108
:101B50004403309145032817390739F6309751F57A
:101B60001092470310924603B0934503A093440399
:101B7000BCCFD383C28340815181840F951FC81786
:101B8000D90761F44E5F5F4F88819981480F591FD3
:101B9000518340838A819B81938382832115310500
:101BA00009F0B0CFF0934703E09346039ECFFD01C9
:101BB000DC01C0CF13821282D7CF4F925F926F9217
:101BC0007F928F929F92AF92BF92CF92DF92EF92CD
:101BD000FF920F931F93CF93DF938C01009799F49B
:101BE000CB01DF91CF911F910F91FF90EF90DF908C
:101BF000CF90BF90AF909F908F907F906F905F90AD
:101C00004F900C94B80CFC01E60FF71F9C0122507A
:101C10003109E217F30708F4AEC0D901CD91DC9188
:101C20001197C617D70720F1C530D10578F0CE013E
:101C300004978617970750F0C61BD70B2297C193BE
:101C4000D1936D937C93CF010E94540DC801DF9115
:101C5000CF911F910F91FF90EF90DF90CF90BF90A9
:101C6000AF909F908F907F906F905F904F9008956E
:101C70005B01AC1ABD0A4C018C0E9D1EA09146035F
:101C8000B0914703512C412CF12CE12C109731F5E8
:101C900080914403909145038815990509F05CC033
:101CA0004616570608F058C0809100029091010234
:101CB000009741F48DB79EB7409104025091050200
:101CC000841B950BE817F90708F055C0F0934503FE
:101CD000E0934403F90171836083B8CF8D919C91A7
:101CE000119712966C90129713967C901397A815E3
:101CF000B90559F56C0142E0C40ED11CCA14DB04CD
:101D000020F1AC014A195B09DA011296159780F0AF
:101D10006282738251834083D9016D937C93E11475
:101D2000F10471F0D7011396FC93EE9312978ECFC6
:101D300022968C0F9D1FF90191838083F301EFCFD1
:101D4000F0934703E093460381CF4816590608F401
:101D50002C017D01D3019ACFCB010E94B80C7C01EC
:101D6000009749F0AE01B8010E94BE0EC8010E9462
:101D7000540D87016BCF10E000E068CFFB01DC0160
:101D800002C001900D9241505040D8F70895FB01D8
:101D9000DC0101900D920020E1F7089512E0CFE2FE
:101DA000D2E000E006C0802FFE010E94950C219633
:101DB000011DC033D10780E00807A9F7F894FFCFD1
:101DC00000004803800000082A1C771C2A08000035
:101DD00000004203640299028F030A03A802FC0276
:101DE0000D0A002A50312D475255504F31332D5393
:0A1DF000454343494F4E20410000D7
:00000001FF
