:020000040000FA
:100000000C9430020C9461020C9461020C94610215
:100010000C9461020C9461020C9461020C946102D4
:100020000C9461020C9461020C9461020C946102C4
:100030000C9461020C9461020C9461020C946102B4
:100040000C9461020C9461020C9461020C946102A4
:100050000C9461020C9461020C9461020C94E80807
:100060000C9461020C94B2080C9488080C94610200
:100070000C9461020C9461020C9461020C94610274
:100080000C9461020C9461020C9461020C94610264
:100090000C9461020C9461020C9461020C94610254
:1000A0000C9461020C9461020C9461020C94610244
:1000B0000C9461020C9461020C9461020C94610234
:1000C0000C9461020C9461020C9461020C94610224
:1000D0000C9461020C9461020C9461020C94610214
:1000E0000C9461020C948F030C9464020C9413041E
:1000F0000C94FE030C9499020C9427040C943E0477
:100100000C9423040C9431040C940A030C94A8025C
:100110000C942B040C9435040C94FC020C943904BC
:100120000C9408040C9443040C940C040C941904CF
:100130000C9410040C943F040C9432090C94420368
:100140000C9404040C941D040C94280C0000210051
:10015000240027002A002D00300033000101000098
:10016000040107010A0100002200250028002B00DD
:100170002E003100340002010000050108010B01CE
:10018000000020002300260029002C002F00320050
:100190000001000003010601090105050505070529
:1001A00008080808020202020A0A080804040404F3
:1001B000010101010101010103030303030303031F
:1001C000040707070C0C0C0C0C0C0C0C02020202AE
:1001D00006060606060606060B0B0B0B0B0B0B0B97
:1001E0000102102020080810204010204080020149
:1001F000020108040201010204081020408080402E
:10020000201008040201800402018040201008042C
:1002100002010804020101020408102040800102CA
:1002200004081020408000000A0B02090C0D0E0883
:1002300007030401000000000000000000000000AF
:1002400000000000000000000000000000000000AE
:10025000000012111000000000000000000000006B
:10026000000000000000000000000000007CFE9282
:100270008AFE7C00008088FEFE80800000C4E6A22A
:10028000929E8C000044C69292FE6C00003028249E
:10029000FEFE2000004ECE8A8AFA7200007CFE929A
:1002A00092F66400000606E2FA1E0600006CFE925A
:1002B00092FE6C00004CDE9292FE7C000040E8A8AA
:1002C000A8F8F00000FEFE9090F060000070F88842
:1002D00088D850000060F09090FEFE000070F8A8F2
:1002E000A8B830000020FCFE222604000018BCA4A0
:1002F000A4FC7C0000FEFE1010F0E000000080F482
:10030000F48000000060E080FA7A000000FEFE2029
:1003100070D88800000000FEFE00000000F8F830F1
:10032000E030F8F800F8F81818F8F0000070F888D5
:1003300088F8700000FCFC24243C180000183C24C1
:10034000FCFC80C000F8F808083830000090A8A82D
:10035000A8A84800001010FCFC1010000078F880DD
:1003600080F8F800003070C0C07030000078F8806D
:10037000F080F8780088D87070D888000018B8A08D
:10038000A0F878000000C8E8B898000000FCFE1251
:1003900012FEFC0000FEFE9292FE6C00007CFE82CB
:1003A00082C6440000FEFE8282FE7C0000FEFE92B9
:1003B0009292820000FEFE1212120200007CFE8267
:1003C000A2E6640000FEFE1010FEFE00000082FEA9
:1003D000FE8200000060E082FE7E020000FEFE3829
:1003E0006CC6820000FEFE808080800000FEFE0C55
:1003F000180CFEFE00FEFE0C1830FEFE007CFE8295
:1004000082FE7C0000FEFE22223E1C00003C7E425A
:1004100062FEBC0000FEFE3272DE8C00004CDE92FA
:1004200092F66400000602FEFE020600007EFE80D8
:1004300080FEFE00003E7EC0C07E3E0000FEFE60EC
:100440003060FEFE00C6EE381038EEC6000E1EF01C
:10045000F01E0E0000C2E2B29A8E86003209280C0D
:1004600011241FBECFEFD1E2DEBFCDBF00E00CBF35
:1004700012E0A0E0B2E0E0ECFDE100E00BBF02C062
:1004800007900D92AA33B107D9F723E0AAE3B2E0AF
:1004900001C01D92A834B207E1F712E0CFE2D2E02A
:1004A00000E006C021970109802FFE010E94950CF3
:1004B000CE32D10780E00807A9F70E94AA090C9460
:1004C000CE0E0C9400000895AF92BF92CF92DF92AF
:1004D000EF92FF920F931F93CF93DF936C017B01F9
:1004E0008B01040F151FEB015E01AE18BF08C0178A
:1004F000D10759F06991D601ED91FC910190F081FD
:10050000E02DC6011995892B79F7C501DF91CF91AF
:100510001F910F91FF90EF90DF90CF90BF90AF9021
:10052000089542E050E060E272E088E492E00C94CA
:100530006402FC01538D448D252F30E0842F90E020
:10054000821B930B541710F0CF96089501970895CE
:10055000FC01918D828D981761F0A28DAE0FBF2F97
:10056000B11D5D968C91928D9F5F9F73928F90E0ED
:1005700008958FEF9FEF08952FB7F894809144026C
:1005800090914502A0914602B09147022FBF8093FF
:10059000500290935102A0935202B093530288E408
:1005A00092E00E94A80297FF26C02FB7F89480918E
:1005B000440290914502A0914602B09147022FBF9C
:1005C0004091500250915102609152027091530239
:1005D000841B950BA60BB70B40914C0250914D021A
:1005E00060914E0270914F0284179507A607B707D6
:1005F000B0F28FEF9FEF0895FC01918D828D9817D7
:1006000031F0828DE80FF11D858D90E008958FEF18
:100610009FEF0895FC01918D228D892F90E0805CE1
:100620009F4F821B91098F739927089588E492E068
:100630000E940A0321E0892B09F420E0822F08950B
:10064000FC01A48DA80FB92FB11DA35ABF4F2C9147
:10065000848D90E001968F739927848FA689B7893E
:100660002C93A089B1898C91837080648C93938D35
:10067000848D981306C00288F389E02D80818F7DD8
:1006800080830895EF92FF920F931F93CF93DF9390
:10069000EC0181E0888F9B8D8C8D98131AC0E889BE
:1006A000F989808185FF15C09FB7F894EE89FF898D
:1006B0006083E889F98980818370806480839FBF2B
:1006C00081E090E0DF91CF911F910F91FF90EF902B
:1006D0000895F62E0B8D10E00F5F1F4F0F7311273B
:1006E000E02E8C8D8E110CC00FB607FCFACFE88976
:1006F000F989808185FFF5CFCE010E942003F1CFDB
:10070000EB8DEC0FFD2FF11DE35AFF4FF0829FB7E9
:10071000F8940B8FEA89FB8980818062CFCFCF93D9
:10072000DF93EC01888D8823B9F0AA89BB89E88919
:10073000F9898C9185FD03C0808186FD0DC00FB6BF
:1007400007FCF7CF8C9185FFF2CF808185FFEDCF3D
:10075000CE010E942003E9CFDF91CF91089580E080
:1007600090E0892B29F00E94160381110E9400005D
:1007700080E090E0892B49F080E090E0892B29F01F
:100780000E94000081110E94000080E090E0892B0F
:1007900049F080E090E0892B29F00E94000081114F
:1007A0000E94000080E090E0892B49F080E090E01A
:1007B000892B29F00E94000081110C9400000895FB
:1007C0008150823108F05AC0E82FF0E08827E451C8
:1007D000FC4F8F4F0C94950C0C041004FE03040482
:1007E00008043E04130419041D04230427042B04E5
:1007F000310435043E0439043F04430480918000F1
:100800008F77809380000895809180008F7DF9CF4D
:1008100080918000877FF5CF84B58F7784BD089560
:1008200084B58F7DFBCF8091B0008F778093B0002F
:1008300008958091B0008F7DF9CF809190008F77DF
:10084000809390000895809190008F7DF9CF8091E2
:100850009000877FF5CF8091A0008F778093A000D4
:1008600008958091A0008F7DF9CF8091A000877FAF
:10087000F5CF809120018F7780932001089580919A
:1008800020018F7DF9CF80912001877FF5CFCF9315
:10089000DF93282F30E0F901EA5DFD4F8491F901E3
:1008A000E052FE4FD491F901E656FE4FC491CC239D
:1008B000A1F081110E94E003EC2FF0E0EE0FFF1F8A
:1008C000E058FE4FA591B491EC91ED2381E090E0CA
:1008D00009F480E0DF91CF91089580E090E0FACFB5
:1008E0001F93CF93DF93282F30E0F901EA5DFD4F8E
:1008F0008491F901E052FE4FD491F901E656FE4F82
:10090000C491CC23A9F0162F81110E94E003EC2F93
:10091000F0E0EE0FFF1FEA59FE4FA591B4918FB79B
:10092000F894EC91111108C0D095DE23DC938FBFB1
:10093000DF91CF911F910895DE2BF8CFCF93DF93F6
:1009400090E0FC01E052FE4F249186569E4FFC0140
:1009500084918823D1F090E0880F991FFC01E45B1B
:10096000FE4FA591B491FC01EA59FE4FC591D49177
:1009700061110EC09FB7F8948C91E22FE0958E2301
:100980008C932881E223E8839FBFDF91CF91089564
:100990008FB7F894EC91E22BEC938FBFF6CF3FB773
:1009A000F89480913C0290913D02A0913E02B0915A
:1009B0003F0226B5A89B05C02F3F19F00196A11D47
:1009C000B11D3FBFBA2FA92F982F8827BC01CD0199
:1009D000620F711D811D911D42E0660F771F881FF8
:1009E000991F4A95D1F708958F929F92AF92BF9227
:1009F000CF92DF92EF92FF926B017C010E94CF04B5
:100A00004B015C01C114D104E104F104B9F00E946E
:100A1000CF04681979098A099B09683E73408105EA
:100A2000910580F321E0C21AD108E108F10888EEAF
:100A3000880E83E0981EA11CB11CE4CFFF90EF90BC
:100A4000DF90CF90BF90AF909F908F90089580914E
:100A500042029091430281309105E1F460E087E029
:100A60000E94700461E086E00E94700461E085E00D
:100A70000E94700460E084E00E94700460E083E003
:100A80000E94700460E082E00E94700460E089E0EF
:100A90000C94700482309105D1F461E087E00E94EB
:100AA000700461E086E00E94700460E085E00E94CE
:100AB000700461E084E00E94700461E083E00E94C1
:100AC000700460E082E00E94700461E0E0CF833057
:100AD000910591F461E087E00E94700461E086E096
:100AE0000E94700461E085E00E94700461E084E08F
:100AF0000E94700460E0E2CF0497B1F460E087E008
:100B00000E94700461E086E00E94700461E085E06C
:100B10000E94700460E084E00E94700460E083E062
:100B20000E94700461E0CECF61E087E00E94700413
:100B300060E086E00E94700461E085E00E9470043D
:100B400061E0E9CFCF92DF92EF92FF920F931F9374
:100B5000CF93DF931F921F92CDB7DEB769834A838D
:100B6000880F991F0091410310914203000F111F3C
:100B7000EBEEF2E09F012B5E32402017310714F4B8
:100B80001192F8CF2981FC01E551FD4F21838A8123
:100B9000808360E080913F030E947004101611066C
:100BA00004F501501109F801E551FD4FE080D090A6
:100BB0003D03C0903B0388E0F82E6E2D661F66272C
:100BC000661F8C2D0E947004EE0C61E08D2D0E943A
:100BD000700460E08D2D0E947004FA94F110EDCF46
:100BE000DDCF61E080913F030F900F90DF91CF91B7
:100BF0001F910F91FF90EF90DF90CF900C947004B5
:100C0000EF92FF921F93CF93DF9320914103309196
:100C1000420382179307B4F4EC0123E0880F991F75
:100C20002A95E1F79C0125503D4F790111E0F7012C
:100C300011927F0140E0612FCE010E94A2051F5F4B
:100C40001930A9F7DF91CF911F91FF90EF90089590
:100C5000CF93DF93D0E0C0E08091410390914203B5
:100C6000C817D9072CF4CE010E9400062196F4CFB4
:100C7000DF91CF9108952F923F924F925F926F92A2
:100C80007F928F929F92AF92BF92CF92DF92EF921C
:100C9000FF920F931F93CF93DF9300D000D000D02B
:100CA0001F92CDB7DEB78B0198E0E6E0F2E0DE01FF
:100CB000119601900D929A95E1F79FEB980F9A315A
:100CC00038F528E08202C0011124DE01119630E0DF
:100CD00020E08C579E4FFC01E20FF31FE491ED934F
:100CE0002F5F3F4F28303105B1F7809143038111C9
:100CF0008DC0F12CE12CB8016E0D7F1D90E080E0DD
:100D0000683071050CF442C0019668507109F8CF43
:100D10009FE9980F9A31A8F448E08402C001112499
:100D2000DE01119630E020E08C549040FC01E20F8F
:100D3000F31FE491ED932F5F3F4F28303105B1F75A
:100D4000D4CF90ED980F9A30A8F458E08502C001F6
:100D50001124DE01119630E020E084519F4FFC0108
:100D6000E20FF31FE491ED932F5F3F4F28303105E1
:100D7000B1F7BBCF803209F0B8CF19821A821B823B
:100D80001C821D821E821F821886AFCF20914103D4
:100D9000309142038217930704F568307105A8F477
:100DA000E1E0F0E0EC0FFD1FEE0DFF1D4081FC01C6
:100DB00053E0EE0FFF1F5A95E1F7E551FD4FE60FA7
:100DC000F71F408B6F5F0E94A2056FEFE61AF60ACD
:100DD00078E0E716F10409F08ECF2A960FB6F89462
:100DE000DEBF0FBECDBFDF91CF911F910F91FF905E
:100DF000EF90DF90CF90BF90AF909F908F907F90BB
:100E00006F905F904F903F902F90089520904103F6
:100E10003090420381E0281A310893E0220C331C01
:100E20009A95E1F7201A310A88E090E020E8422EF6
:100E3000512C37E0632E712C4091410350914203B5
:100E40008A01015011099101281B390B37FF05C098
:100E500001501109285F3F4FF9CF0F3F6FEF160781
:100E60000CF4BBCFBC01615071097B010F3F10072F
:100E700009F44AC0041715070CF046C028303105A4
:100E80000CF042C0E1E0F0E0EC0FFD1FEE0DFF1DA5
:100E9000A080480183E0880C991C8A95E1F7C20183
:100EA00002C0959587952A95E2F78987282F209586
:100EB0002A87D12CC12CB12C8091410390914203FF
:100EC00008171907D4F4F401EC0DFD1DE551FD4F91
:100ED000808993012C193D09A50102C055954795BC
:100EE0002A95E2F740FF15C05985852B808B4089F4
:100EF00061E06C0DC8010E94A2057FEFC71AD70AF6
:100F000088E0C816D104C1F6C701009709F094CF54
:100F100064CF6A858623EACFCF92DF92EF92FF9269
:100F20000F931F93CF93DF93E090E902F090EA02D2
:100F3000D0E0C0E008EE13E0CE15DF056CF50E94AE
:100F400028068091E9029091EA02C817D90730F487
:100F5000E091E502F091E6023097D9F410923A025E
:100F6000EAE3F2E070E060E080810E943B0660917D
:100F7000420270914302C8010E94810C6B010E94E1
:100F80002705B601DD0C880B990B0E94F40421960D
:100F9000D3CFEC0FFD1FE6CFDF91CF911F910F91C3
:100FA000FF90EF90DF90CF900895EF92FF920F9314
:100FB0001F93CF93DF93EC018B017C01FE01019025
:100FC0000020E9F73197EC1BFD0BC7018C1B9D0B33
:100FD0008E179F0748F4B801F70181917F010E94A5
:100FE0003B06085F1F4FEACFDF91CF911F910F9112
:100FF000FF90EF900895AF92BF92CF92DF92EF9261
:10100000FF920F931F93CF93DF930E9428060091C6
:10101000E5021091E6021093410200934002E09035
:101020004202F09043028EE00E944704EC01892BBB
:10103000D9F40E942806BE01C8010E94D50764EFBA
:1010400071E080E090E00E94F4042196CA30D1055E
:1010500091F7DF91CF911F910F91FF90EF90DF906B
:10106000CF90BF90AF90089588EE93E0B7010E94B3
:10107000810C6B01770FEE08FF08C0914103D091FE
:10108000420383E0CC0FDD1F8A95E1F7F801019060
:101090000020E9F731975801AE1ABF0A93E0AA0C75
:1010A000BB1C9A95E1F7AC16BD069CF6BE01C801C3
:1010B0000E94D507C701B6010E94F4042197F3CF1F
:1010C0000F931F93CF93DF93EC0188819981009751
:1010D00059F02A813B812617370730F081E0DF91F4
:1010E000CF911F910F9108958B016F5F7F4F0E94E9
:1010F000DD0D009759F0998388831B830A832C8127
:101100003D81232B59F7FC011082E8CF80E0E7CF27
:101110001F920F920FB60F9211240BB60F922F93BE
:101120003F934F935F936F937F938F939F93AF936F
:10113000BF93EF93FF9388E492E00E942003FF9116
:10114000EF91BF91AF919F918F917F916F915F913F
:101150004F913F912F910F900BBE0F900FBE0F90AC
:101160001F9018951F920F920FB60F9211240BB675
:101170000F922F938F939F93EF93FF93E0915802D9
:10118000F09159028081E0915E02F0915F0282FD50
:101190001DC09081809161028F5F8F7320916202E8
:1011A000821741F0E0916102F0E0E85BFD4F958F1E
:1011B00080936102FF91EF919F918F912F910F90FA
:1011C0000BBE0F900FBE0F901F9018958081F2CF2D
:1011D0001F920F920FB60F9211242F933F938F936C
:1011E0009F93AF93BF938091440290914502A09149
:1011F0004602B091470230913B0223E0230F2D3786
:1012000058F50196A11DB11D20933B028093440225
:1012100090934502A0934602B093470280913C020E
:1012200090913D02A0913E02B0913F020196A11D16
:10123000B11D80933C0290933D02A0933E02B09377
:101240003F02BF91AF919F918F913F912F910F904E
:101250000FBE0F901F90189526E8230F0296A11D30
:10126000B11DD2CF10924B0210924A0288EE93E049
:10127000A0E0B0E080934C0290934D02A0934E0208
:10128000B0934F0282E192E090934902809348022A
:1012900085EC90E0909355028093540284EC90E0AA
:1012A000909357028093560280EC90E090935902FD
:1012B0008093580281EC90E090935B0280935A02F5
:1012C00082EC90E090935D0280935C0286EC90E06B
:1012D00090935F0280935E0210926102109262020C
:1012E00010926302109264021092E6021092E502DC
:1012F0001092E8021092E7021092EA021092E902BC
:1013000065E170E085EE92E00E9460082091E502C0
:101310003091E602811113C02115310519F0C90180
:101320000E94540D1092E6021092E5021092EA0219
:101330001092E9021092E8021092E702089585E106
:1013400090E09093EA028093E90263E272E0C901BF
:101350000C94C70ECF93DF9300D000D01F921F9242
:10136000CDB7DEB7789484B5826084BD84B58160E2
:1013700084BD85B5826085BD85B5816085BD809160
:101380006E00816080936E001092810080918100D8
:1013900082608093810080918100816080938100D0
:1013A000809180008160809380008091B100846092
:1013B0008093B1008091B00081608093B0008091F3
:1013C0009100826080939100809191008160809370
:1013D0009100809190008160809390008091A100A5
:1013E00082608093A1008091A10081608093A10020
:1013F0008091A00081608093A00080912101826093
:10140000809321018091210181608093210180914D
:10141000200181608093200180917A008460809314
:101420007A0080917A00826080937A0080917A00BD
:10143000816080937A0080917A00806880937A003E
:101440001092C1000CE010E010933C0300933B03AA
:101450008BE090E090933E0380933D038DE090E01D
:101460009093400380933F031092430382E090E007
:10147000909342038093410361E08CE00E949E04BC
:1014800061E080913D030E949E0461E080913F03F2
:101490000E949E0461E080913F030E9470041093BB
:1014A0003C0300933B03EBEFF2E0119283E0EB335C
:1014B000F807D9F710E000E08091410390914203D2
:1014C0000817190744F540E06FE0C8010E94A20523
:1014D0008091410390914203081719072CF447E0CB
:1014E0006BE0C8010E94A20540E069E0C8010E94CB
:1014F000A205C8010E940006809141039091420319
:10150000081719072CF440E06CE0C8010E94A205FE
:101510000F5F1F4FD1CF10E000E080914103909109
:10152000420308171907BCF441E06CE0C8010E94AF
:10153000A2058091410390914203081719072CF4EA
:1015400048E06AE0C8010E94A205C8010E940006A6
:101550000F5F1F4FE2CF61E087E30E949E0460E0CF
:101560008AE00E949E0460E088E00E949E0461E0A0
:1015700087E00E949E0461E086E00E949E0461E094
:1015800085E00E949E0461E084E00E949E0461E088
:1015900083E00E949E0461E082E00E949E0461E07C
:1015A00089E00E949E0460E086E30E949E0460E061
:1015B0008AE00E949E0460E08EE00E949E0461E04A
:1015C0008FE00E949E0461E080E10E949E0461E041
:1015D00081E10E949E0461E08DE00E949E04E09102
:1015E0005802F091590282E08083E0915402F09118
:1015F00055021082E0915602F09157028FEC8083E1
:1016000010926002E0915C02F0915D0286E08083BE
:10161000E0915A02F0915B02808180618083E091C9
:101620005A02F0915B02808188608083E0915A02C7
:10163000F0915B02808180688083E0915A02F09192
:101640005B0280818F7D808380E4F82E88248A94D9
:1016500093E0992EA12CB12C80917B00877F809301
:101660007B00F0927C0080917A00806480937A0005
:1016700080917A0086FDFCCF80917800A09179005E
:10168000BA2FA82F25E030E00E949D0CA5019401FF
:101690000E94310C2F5F3F4F4F4F5F4F30934302FB
:1016A000209342020E94270588E00E944704892B6C
:1016B000A9F48AE00E944704019769F40E948C070C
:1016C00088E00E94470488E00E9447040E942705A2
:1016D0000E94AF03C1CF0E94FB07F2CF61E081E11E
:1016E0000E94700488E492E00E940A03892B09F4A6
:1016F00081C01A8219821C821B821E821D8270E0A8
:1017000060E0CE0101960E94600829813A81811132
:101710002BC02115310519F0C9010E94540D1A8200
:1017200019821E821D821C821B820E94BC0297FDB0
:1017300023C08F8318860D811E810F5F1F4FB80154
:10174000CE0101960E946008882379F329813A81AD
:101750008D819E81BE01695F7F4F820F931F0E9422
:10176000C70E1E830D83E1CF1E821D8262E272E0EE
:10177000C9010E94C70ED9CF8091E5029091E6027F
:10178000009709F44BC069817A816115710509F4EC
:1017900043C04091E7025091E8022D813E814217FB
:1017A0005307D0F10E94C70E8D819E819093EA026B
:1017B0008093E9021E821D8289819A81009711F02F
:1017C0000E94540D8091E5029091E60290934102AF
:1017D000809340020E9491024091E9025091EA02F6
:1017E0006091E5027091E60288E492E00E94640252
:1017F0000E9491020E9428068091E5029091E602E3
:1018000090934102809340028EE00E94470401972A
:10181000E1F40E948C075ACF0E94540D89819A816D
:101820009093E6028093E5028B819C819093E8027D
:101830008093E7028D819E819093EA028093E90272
:101840001A8219821C821B82B5CF0E94FB073ECFF1
:101850008091E5029091E602009711F00C94540DEE
:101860000895052E97FB1EF400940E94480C57FD26
:1018700007D00E94500C07FC03D04EF40C94480C87
:1018800050954095309521953F4F4F4F5F4F0895AC
:1018900090958095709561957F4F8F4F9F4F0895DC
:1018A000A1E21A2EAA1BBB1BFD010DC0AA1FBB1F64
:1018B000EE1FFF1FA217B307E407F50720F0A21BD6
:1018C000B30BE40BF50B661F771F881F991F1A9443
:1018D00069F760957095809590959B01AC01BD016D
:1018E000CF010895A29FB001B39FC001A39F700DC7
:1018F000811D1124911DB29F700D811D1124911D18
:10190000089597FB072E16F4009407D077FD09D0B1
:101910000E94A40C07FC05D03EF4909581959F4F42
:101920000895709561957F4F0895EE0FFF1F881FF2
:101930008BBF0790F691E02D19940E94720CB7FFAF
:101940000895821B930B0895AA1BBB1B51E107C08E
:10195000AA1FBB1FA617B70710F0A61BB70B881F3F
:10196000991F5A95A9F780959095BC01CD010895CE
:101970000F931F93CF93DF938230910510F482E091
:1019800090E0E0914603F091470330E020E0B0E0C2
:10199000A0E0309799F42115310509F44AC0281BBD
:1019A000390B24303105D8F58A819B816115710589
:1019B00089F1FB0193838283FE0111C04081518133
:1019C0000281138148175907E0F04817590799F425
:1019D000109761F012960C93129713961C933296FF
:1019E000CF01DF91CF911F910F910895009346038E
:1019F00010934703F4CF2115310551F042175307D7
:101A000038F0A901DB019A01BD01DF01F801C1CF66
:101A1000EF01F9CF9093470380934603CDCFFE01AA
:101A2000E20FF31F81939193225031093983288368
:101A3000D7CF2091440330914503232B41F42091CB
:101A40000202309103023093450320934403209116
:101A50000002309101022115310541F42DB73EB746
:101A60004091040250910502241B350BE091440380
:101A7000F0914503E217F307A0F42E1B3F0B281744
:101A8000390778F0AC014E5F5F4F2417350748F0F7
:101A90004E0F5F1F509345034093440381939193EE
:101AA0009FCFF0E0E0E09CCFCF93DF930097E9F089
:101AB000FC01329713821282A0914603B091470332
:101AC000ED0130E020E01097A1F420813181820FF8
:101AD000931F20914403309145032817390709F0DB
:101AE00061C0F0934503E0934403DF91CF910895E3
:101AF000EA01CE17DF07E8F54A815B819E014115B7
:101B00005105B1F7E901FB83EA8349915991C40F6B
:101B1000D51FEC17FD0761F4808191810296840F37
:101B2000951FE90199838883828193819B838A83AE
:101B3000F0E0E0E012968D919C9113970097B9F533
:101B40002D913C911197CD010296820F931F209108
:101B50004403309145032817390739F6309751F57A
:101B60001092470310924603B0934503A093440399
:101B7000BCCFD383C28340815181840F951FC81786
:101B8000D90761F44E5F5F4F88819981480F591FD3
:101B9000518340838A819B81938382832115310500
:101BA00009F0B0CFF0934703E09346039ECFFD01C9
:101BB000DC01C0CF13821282D7CF4F925F926F9217
:101BC0007F928F929F92AF92BF92CF92DF92EF92CD
:101BD000FF920F931F93CF93DF938C01009799F49B
:101BE000CB01DF91CF911F910F91FF90EF90DF908C
:101BF000CF90BF90AF909F908F907F906F905F90AD
:101C00004F900C94B80CFC01E60FF71F9C0122507A
:101C10003109E217F30708F4AEC0D901CD91DC9188
:101C20001197C617D70720F1C530D10578F0CE013E
:101C300004978617970750F0C61BD70B2297C193BE
:101C4000D1936D937C93CF010E94540DC801DF9115
:101C5000CF911F910F91FF90EF90DF90CF90BF90A9
:101C6000AF909F908F907F906F905F904F9008956E
:101C70005B01AC1ABD0A4C018C0E9D1EA09146035F
:101C8000B0914703512C412CF12CE12C109731F5E8
:101C900080914403909145038815990509F05CC033
:101CA0004616570608F058C0809100029091010234
:101CB000009741F48DB79EB7409104025091050200
:101CC000841B950BE817F90708F055C0F0934503FE
:101CD000E0934403F90171836083B8CF8D919C91A7
:101CE000119712966C90129713967C901397A815E3
:101CF000B90559F56C0142E0C40ED11CCA14DB04CD
:101D000020F1AC014A195B09DA011296159780F0AF
:101D10006282738251834083D9016D937C93E11475
:101D2000F10471F0D7011396FC93EE9312978ECFC6
:101D300022968C0F9D1FF90191838083F301EFCFD1
:101D4000F0934703E093460381CF4816590608F401
:101D50002C017D01D3019ACFCB010E94B80C7C01EC
:101D6000009749F0AE01B8010E94BE0EC8010E9462
:101D7000540D87016BCF10E000E068CFFB01DC0160
:101D800002C001900D9241505040D8F70895FB01D8
:101D9000DC0101900D920020E1F7089512E0CFE2FE
:101DA000D2E000E006C0802FFE010E94950C219633
:101DB000011DC033D10780E00807A9F7F894FFCFD1
:101DC00000004803800000082A1C771C2A08000035
:101DD00000004203640299028F030A03A802FC0276
:101DE0000D0A002A50312D475255504F31332D5393
:0A1DF000454343494F4E20410000D7
:020000040003F7
:10E000000D9489F10D94B2F10D94B2F10D94B2F129
:10E010000D94B2F10D94B2F10D94B2F10D94B2F1F0
:10E020000D94B2F10D94B2F10D94B2F10D94B2F1E0
:10E030000D94B2F10D94B2F10D94B2F10D94B2F1D0
:10E040000D94B2F10D94B2F10D94B2F10D94B2F1C0
:10E050000D94B2F10D94B2F10D94B2F10D94B2F1B0
:10E060000D94B2F10D94B2F10D94B2F10D94B2F1A0
:10E070000D94B2F10D94B2F10D94B2F10D94B2F190
:10E080000D94B2F10D94B2F10D94B2F10D94B2F180
:10E090000D94B2F10D94B2F10D94B2F10D94B2F170
:10E0A0000D94B2F10D94B2F10D94B2F10D94B2F160
:10E0B0000D94B2F10D94B2F10D94B2F10D94B2F150
:10E0C0000D94B2F10D94B2F10D94B2F10D94B2F140
:10E0D0000D94B2F10D94B2F10D94B2F10D94B2F130
:10E0E0000D94B2F141546D656761323536300041AF
:10E0F000726475696E6F206578706C6F72657220DE
:10E1000073746B3530305632206279204D4C530099
:10E11000426F6F746C6F616465723E004875683F52
:10E1200000436F6D70696C6564206F6E203D200048
:10E130004350552054797065202020203D20005FF9
:10E140005F4156525F415243485F5F3D2000415658
:10E1500052204C696243205665723D20004743437C
:10E160002056657273696F6E203D20004350552024
:10E1700049442020202020203D20004C6F7720663D
:10E18000757365202020203D20004869676820665F
:10E190007573652020203D200045787420667573D6
:10E1A00065202020203D20004C6F636B2066757336
:10E1B000652020203D20004D617220203720323024
:10E1C000313300312E362E3800342E332E350056A2
:10E1D00023202020414444522020206F7020636F70
:10E1E00064652020202020696E73747275637469E1
:10E1F0006F6E2061646472202020496E74657272B3
:10E20000757074006E6F20766563746F7200726A49
:10E210006D702020006A6D70200057686174207056
:10E220006F72743A00506F7274206E6F7420737541
:10E2300070706F72746564004D7573742062652030
:10E2400061206C6574746572002000577269747483
:10E25000696E672045450052656164696E672045B7
:10E26000450045452065727220636E743D00504F35
:10E27000525400303D5A65726F2061646472003FF1
:10E280003D43505520737461747300403D454550C3
:10E29000524F4D207465737400423D426C696E6B41
:10E2A000204C454400453D44756D70204545505215
:10E2B0004F4D00463D44756D7020464C415348001B
:10E2C000483D48656C70004C3D4C69737420492F83
:10E2D0004F20506F72747300513D51756974005234
:10E2E0003D44756D702052414D00563D73686F7707
:10E2F00020696E7465727275707420566563746FF0
:10E30000727300593D506F727420626C696E6B00BD
:10E310002A0011241FBECFEFD1E2DEBFCDBF01E046
:10E320000CBF12E0A0E0B2E0EEE1FDEF03E00BBFB6
:10E3300002C007900D92A030B107D9F712E0A0E01B
:10E34000B2E001C01D92AE30B107E1F70F9460F367
:10E350000D948DFE01E20EBF0FEF0DBF11241FBE05
:10E360000D9460F30D9400F020E030E040ED57E0B4
:10E3700005C0FA013197F1F72F5F3F4F2817390792
:10E38000C0F308959C01260F311DC901A0E0B0E043
:10E390002F5F3F4FABBFFC018791882361F08093D3
:10E3A000C6008091C00086FFFCCF8091C0008064D1
:10E3B0008093C000EACF08958DE08093C6008091DD
:10E3C000C00086FFFCCF8091C00080648093C000B5
:10E3D0008AE08093C6008091C00086FFFCCF8091C8
:10E3E000C00080648093C00008950F94C2F10F9420
:10E3F000DCF10895FC019081992359F09093C600B7
:10E400008091C00086FFFCCF8091C0008064809323
:10E41000C0003196992379F70895282F982F929567
:10E420009F70892F805D8A3308F0895F8093C600D2
:10E430008091C00086FFFCCF8091C00080648093F3
:10E44000C000822F8F70982F905D9A3308F0995FEB
:10E450009093C6008091C00086FFFCCF8091C000E1
:10E4600080648093C00008959C01FB01853691056E
:10E470001CF46330710594F0C90164E670E00F94F8
:10E480002EFE605D7F4F6093C6008091C00086FFC6
:10E49000FCCF8091C00080648093C0002B30310598
:10E4A00014F43297B4F0C90164E670E00F942EFEC4
:10E4B0006AE070E00F942EFE605D7F4F6093C600AF
:10E4C0008091C00086FFFCCF8091C0008064809363
:10E4D000C000C9016AE070E00F942EFEC0968093E0
:10E4E000C6008091C00086FFFCCF8091C000806490
:10E4F0008093C00008951F93182F8EE692EE60E07F
:10E500000F94C2F11093C6008091C00086FFFCCF2B
:10E510008091C00080648093C0000F94DCF11F9153
:10E5200008952F923F924F925F926F927F928F92B7
:10E530009F92AF92BF92CF92DF92EF92FF920F9392
:10E540001F93DF93CF93CDB7DEB762970FB6F894E2
:10E55000DEBF0FBECDBF382E622ECA01DB015C01CB
:10E560006D01772420E2222E2E010894411C511CBB
:10E570008BC081E0A81680E0B80681E0C80680E084
:10E58000D80628F0C601AA27BB270F940DF2BB2797
:10E59000AD2D9C2D8B2D0F940DF28A2D0F940DF225
:10E5A0002092C6008091C00086FFFCCF8091C00001
:10E5B00080648093C0009DE29093C6008091C0006B
:10E5C00086FFFCCF8091C00080648093C0002092C1
:10E5D000C6008091C00086FFFCCF8091C00080649F
:10E5E0008093C00019828601750188249924A1E0D6
:10E5F0003A1651F03A1620F0B2E03B1661F409C029
:10E600000BBFF701779007C0C7010F9477FE782EF4
:10E6100002C0F7017080872D0F940DF22092C60082
:10E620008091C00086FFFCCF8091C0008064809301
:10E63000C000872D8052F401EF70F0708F3520F408
:10E64000E40DF51D708204C0E40DF51D8EE280839B
:10E650000894E11CF11C011D111D0894811C911CE2
:10E6600090E18916910409F0C2CF80E190E0A0E02A
:10E67000B0E0A80EB91ECA1EDB1E198AC2010F9493
:10E68000FAF10F94DCF16A94662009F072CF629679
:10E690000FB6F894DEBF0FBECDBFCF91DF911F91B3
:10E6A0000F91FF90EF90DF90CF90BF90AF909F9031
:10E6B0008F907F906F905F904F903F902F90089534
:10E6C0002F923F924F925F926F927F928F929F9282
:10E6D000AF92BF92CF92DF92EF92FF920F931F9370
:10E6E000DF93CF93CDB7DEB7CD53D1400FB6F894BB
:10E6F000DEBF0FBECDBF01E20EBF0FEF0DBF94B75F
:10E70000F894A89514BE80916000886180936000A1
:10E7100010926000789493FF05C0E0910002F091A0
:10E7200001021995279A2F9A8091C00082608093E8
:10E73000C00080E18093C40088E18093C1000000A4
:10E74000EE24FF24870144E0A42EB12CCC24DD2448
:10E7500024C0C5010197F1F70894E11CF11C011DCB
:10E76000111D21E2E2162EE4F20620E0020720E06D
:10E77000120718F031E0C32ED12CC801B70127ECE5
:10E780003BE140E050E00F9441FE611571058105C9
:10E79000910519F485B1805885B98091C00087FD35
:10E7A00003C0C114D104A9F2A6014F5F5F4FC25E3E
:10E7B000DE4F59834883CE51D140C25EDE4F8881FF
:10E7C0009981CE51D140019711F00D9410FEC05D9A
:10E7D000DE4F19821882C053D14060E0C15DDE4F28
:10E7E0001882CF52D14088249924C35DDE4F19820C
:10E7F0001882CD52D140C05EDE4F188219821A8233
:10E800001B82C052D140CE5CDE4F188219821A8220
:10E810001B82C253D140EE24FF2487010BBFF701B6
:10E8200007911691C45CDE4F19830883CC53D14005
:10E830000D940BFEC25EDE4F28813981CE51D1404E
:10E840002130310509F52091C600C25EDE4F1982E4
:10E850001882CE51D14022C02F5F3F4F4F4F5F4FA4
:10E86000213082E138078AE7480780E0580780F0C6
:10E87000C45CDE4FE881F981CC53D140EF5FFF4F9C
:10E8800019F0EE27FF27099420E030E040E050E047
:10E890008091C00087FFE0CF2091C600C35DDE4FAE
:10E8A00048815981CD52D1404F5F5F4FC35DDE4FEC
:10E8B00059834883CD52D140213209F063C64A3092
:10E8C000510508F05FC60894811C911C53E0851621
:10E8D000910409F059C600E010E018C081E280936D
:10E8E000C6008091C00086FFFCCF8091C00080648C
:10E8F0008093C0002F5F3F4F2931310579F70F9486
:10E90000DCF10F5F1F4F0530110519F020E030E0FA
:10E91000E5CF10920A0210920B0210920C02109294
:10E920000D02109206021092070210920802109235
:10E930000902109202021092030210920402109235
:10E9400005028FEE90EE60E00F94F5F180E191EE1C
:10E9500060E00F94C2F18091C00087FFFCCF9091DE
:10E96000C600903608F09F759032B8F09093C600BC
:10E970008091C00086FFFCCF8091C00080648093AE
:10E98000C000A0E2A093C6008091C00086FFFCCF2B
:10E990008091C00080648093C000983409F4D7C18E
:10E9A0009934B8F4923409F459C1933458F490333B
:10E9B00019F1903308F4E3C59F33A1F1903409F0C5
:10E9C000DEC5BDC0953409F470C1963409F0D7C5D1
:10E9D00098C1923509F42BC2933538F49C3409F46C
:10E9E000F5C1913509F0CBC518C2963509F445C279
:10E9F000993509F0C4C567C483E792EE62E00F94CD
:10EA0000F5F110920602109207021092080210927D
:10EA1000090210920A0210920B0210920C0210923C
:10EA20000D0213C18FE792EE62E00F94F5F18FEEC5
:10EA300090EE60E00F94F5F181E291EE60E00F94CA
:10EA4000C2F187EB91EE60E00F94F5F180E391EE77
:10EA500060E00F94C2F184EE90EE60E00F94F5F167
:10EA60008FE391EE60E00F94C2F186E090E061E008
:10EA700070E00F9434F20F94DCF18DE591EE60E0DC
:10EA80000F94C2F189EC91EE60E00F94F5F18EE401
:10EA900091EE60E00F94C2F183EC91EE60E00F9490
:10EAA000F5F18CE691EE60E00F94C2F18EE10F94E7
:10EAB0000DF288E90F940DF281E00F940DF20F949E
:10EAC000DCF18BE791EE60E00F94C2F119E0E0E039
:10EAD000F0E010935700E4918E2F0F940DF20F94F5
:10EAE000DCF18AE891EE60E00F94C2F1E3E0F0E03F
:10EAF00010935700E4918E2F0F940DF20F94DCF1D8
:10EB000089E991EE60E00F94C2F1E2E0F0E0109349
:10EB10005700E4918E2F0F940DF20F94DCF188EAE8
:10EB200091EE60E00F94C2F1E1E0F0E01093570045
:10EB30001491812F0F940DF20F94DCF107CF8BE825
:10EB400092EE62E00F94F5F18BE492EE60E00F94A8
:10EB5000F5F10F94DCF100E010E019C0C8016F2D51
:10EB60000F947FFEFF2031F489E492EE60E00F9471
:10EB7000C2F10BC0F092C6008091C00086FFFCCFAE
:10EB80008091C00080648093C0000F5F1F4FC80158
:10EB900081519F41A0E0B0E0ABBFFC01F790BAE229
:10EBA000FB1621F0E2E000301E07C1F60F94DCF105
:10EBB0000F94DCF187E592EE60E00F94F5F10F948D
:10EBC000DCF1CC24DD2400E010E01EC0C8010F946D
:10EBD00077FEF82E882331F489E492EE60E00F94FA
:10EBE000C2F10BC08093C6008091C00086FFFCCFAD
:10EBF0008091C00080648093C000FE1419F00894D6
:10EC0000C11CD11C0F5F1F4FC80181519F41A0E063
:10EC1000B0E0ABBFFC01E790FAE2EF1621F022E092
:10EC20000030120799F60F94DCF10F94DCF182E6C4
:10EC300092EE60E00F94C2F1C60161E070E00F94C3
:10EC400034F20F94DCF10F94DCF110920202109276
:10EC50000302109204021092050278CE89E992EE26
:10EC600062E00F94F5F1279A2F9A16C02F9880E052
:10EC700090E0E0EDF7E03197F1F7019684369105E9
:10EC8000C1F72F9A80E090E0E0EDF7E03197F1F7DF
:10EC9000019684369105C1F78091C00087FFE6CFC9
:10ECA0008091C00087FFFCCF64C485EA92EE62E0E9
:10ECB0000F94F5F140910202509103026091040219
:10ECC0007091050281E020E10F9491F2809102029F
:10ECD00090910302A0910402B091050280509F4FD1
:10ECE000AF4FBF4F8093020290930302A0930402A0
:10ECF000B093050280509041A040B04008F426CE69
:10ED0000A4CF83EB92EE62E00F94F5F140910602FE
:10ED100050910702609108027091090280E020E1A1
:10ED20000F9491F28091060290910702A09108023F
:10ED3000B091090280509F4FAF4FBF4F80930602A2
:10ED400090930702A0930802B0930902FFCD80ECD4
:10ED500092EE62E00F94F5F183E792EE60E00F949B
:10ED6000F5F18FE792EE60E00F94F5F18BE892EE0B
:10ED700060E00F94F5F189E992EE60E00F94F5F10F
:10ED800085EA92EE60E00F94F5F183EB92EE60E09D
:10ED90000F94F5F180EC92EE60E00F94F5F187ECC2
:10EDA00092EE60E00F94F5F188ED92EE60E00F9442
:10EDB000F5F18FED92EE60E00F94F5F18AEE92EEB0
:10EDC00060E00F94F5F183E093EEBDCD87EC92EE19
:10EDD00062E00F94F5F181E40F947BF282E40F94EA
:10EDE0007BF283E40F947BF284E40F947BF285E45E
:10EDF0000F947BF286E40F947BF287E40F947BF20E
:10EE000088E40F947BF28AE40F947BF28BE40F94F6
:10EE10007BF28CE40F947BF299CD88ED92EE62E068
:10EE20000F94F5F1772473948824992409C48FED05
:10EE300092EE62E00F94F5F140910A0250910B02BC
:10EE400060910C0270910D0282E020E10F9491F22A
:10EE500080910A0290910B02A0910C02B0910D02D8
:10EE600080509F4FAF4FBF4F80930A0290930B0289
:10EE7000A0930C02B0930D0269CD8AEE92EE62E08F
:10EE80000F94F5F184EE90EE60E00F94F5F18FECC5
:10EE900091EE60E00F94F5F1662477244301CC5D98
:10EEA000DE4F19821882C452D140D401C301B695F5
:10EEB000A79597958795CA5DDE4F88839983AA8326
:10EEC000BB83C652D140CC5DDE4FA881B981C4520C
:10EED000D1401196CC5DDE4FB983A883C452D14096
:10EEE000CD0162E070E00F9434F2B0E2B093C6005E
:10EEF0008091C00086FFFCCF8091C0008064809329
:10EF0000C000EDE2E093C6008091C00086FFFCCF18
:10EF10008091C00080648093C000F0E2F093C6004E
:10EF20008091C00086FFFCCF8091C00080648093F8
:10EF3000C000CA5DDE4FE880F9800A811B81C6529D
:10EF4000D140BB27A12F902F8F2D0F940DF2CA5DBA
:10EF5000DE4F8881C652D1400F940DF2B0E2FB2EF5
:10EF6000F092C6008091C00086FFFCCF8091C00067
:10EF700080648093C0000DE30093C6008091C000C0
:10EF800086FFFCCF8091C00080648093C00010E2B7
:10EF90001093C6008091C00086FFFCCF8091C00016
:10EFA00080648093C0008BBEF3012791C65DDE4F65
:10EFB0002883CA52D140A22EBB24CC24DD2408943D
:10EFC000611C711C811C911C8BBEF3018791282E42
:10EFD0003324442455240894611C711C811C911C09
:10EFE0008BBEF3013791C55DDE4F3883CB52D140E4
:10EFF0000894611C711C811C911C8BBEF30147910C
:10F00000C45DDE4F4883CC52D140ADEFEA2EAFEF66
:10F01000FA2EAFEF0A2FAFEF1A2F6E0C7F1C801E57
:10F02000911E142D032DF22CEE24EA0CFB1C0C1D5A
:10F030001D1D0F940DF220E22093C6008091C000A8
:10F0400086FFFCCF8091C00080648093C000C65DC5
:10F05000DE4F8881CA52D1400F940DF230E23093D6
:10F06000C6008091C00086FFFCCF8091C000806404
:10F070008093C000C45DDE4F8881CC52D1400F9494
:10F080000DF240E24093C6008091C00086FFFCCFA5
:10F090008091C00080648093C000C55DDE4F888190
:10F0A000CB52D1400F940DF250E25093C6008091A4
:10F0B000C00086FFFCCF8091C00080648093C000B8
:10F0C0008FEFE8168FEFF80680E0080780E018075A
:10F0D00031F484E092EE60E00F94C2F1DFC0D80119
:10F0E000C7018070907CA070B0708050904CA040A0
:10F0F000B040D1F52FEF3FE340E050E0E222F322B1
:10F1000004231523CA5DDE4FA880B980CA80DB8046
:10F11000C652D140AE0CBF1CC01ED11EAA0CBB1CD7
:10F12000CC1CDD1C8EE092EE60E00F94C2F1BB2798
:10F13000A12F902F8F2D0F940DF28E2D0F940DF285
:10F1400030E23093C6008091C00086FFFCCF8091F2
:10F15000C00080648093C0004EE34093C60080915D
:10F16000C00086FFFCCF87C08EE09EEFA0E0B0E03D
:10F17000E822F9220A231B239CE0E91694E9F90608
:10F1800090E0090790E0190709F088C0C45DDE4FE0
:10F19000A881CC52D140EA2EFF2400E010E0102FCD
:10F1A0000F2DFE2CEE24C55DDE4FB881CB52D14031
:10F1B000EB0EF11C011D111DD601C501817090706F
:10F1C000A070B070DC0199278827E80EF91E0A1F8D
:10F1D0001B1F20EF30E040E050E0A222B322C42207
:10F1E000D52241E1AA0CBB1CCC1CDD1C4A95D1F7F1
:10F1F000EA0CFB1C0C1D1D1D81E090E0A0E0B0E0BE
:10F20000282239224A225B2235E1220C331C441C7D
:10F21000551C3A95D1F7E20CF31C041D151D57013E
:10F220006801AA0CBB1CCC1CDD1C85E192EE60E0E1
:10F230000F94C2F1C801AA27BB270F940DF2BB2778
:10F24000A12F902F8F2D0F940DF28E2D0F940DF274
:10F2500090E29093C6008091C00086FFFCCF809121
:10F26000C00080648093C000AEE3A093C60080918C
:10F27000C00086FFFCCF8091C00080648093C000F6
:10F28000C601AA27BB270F940DF2BB27AD2D9C2DDD
:10F290008B2D0F940DF28A2D0F940DF20F94DCF14B
:10F2A000CC5DDE4FE881F981C452D140F99709F471
:10F2B0004DCBF4E0EF2EF12C012D112D6E0C7F1CA7
:10F2C000801E911EF2CD83E093EE62E00F94F5F183
:10F2D0008AE192EE60E00F94C2F18091C00087FF56
:10F2E000FCCF1091C6001F751093C6008091C0001E
:10F2F00086FFFCCF8091C00080648093C0000F9493
:10F30000DCF1812F81548A3108F036C1163409F4BA
:10F3100095C0173490F4133409F44EC0143430F40B
:10F320001134F1F0123409F01DC130C0143409F465
:10F3300059C0153409F016C16BC01A3409F4C4C0A1
:10F340001B3438F4173409F48FC0183409F00AC19B
:10F35000A1C01B3409F4D2C01C3409F003C1E8C0B9
:10F360008FEF81B90DC082B1809582B980E090E0C5
:10F37000E0EDF7E03197F1F70196883C9105C1F790
:10F380008091C00087FFEFCF12B8EFC08FEF84B934
:10F390000DC085B1809585B980E090E0E0EDF7E0A3
:10F3A0003197F1F70196883C9105C1F78091C00033
:10F3B00087FFEFCF15B8D9C08FEF87B90DC088B1DF
:10F3C000809588B980E090E0E0EDF7E03197F1F7C3
:10F3D0000196883C9105C1F78091C00087FFEFCF6F
:10F3E00018B8C3C08FEF8AB90DC08BB180958BB9A7
:10F3F00080E090E0E0EDF7E03197F1F70196883C8E
:10F400009105C1F78091C00087FFEFCF1BB8ADC059
:10F410008FEF8DB90DC08EB180958EB980E090E0F0
:10F42000E0EDF7E03197F1F70196883C9105C1F7DF
:10F430008091C00087FFEFCF1EB897C08FEF80BBD1
:10F440000DC081B3809581BB80E090E0E0EDF7E0F6
:10F450003197F1F70196883C9105C1F78091C00082
:10F4600087FFEFCF11BA81C08FEF83BB0DC084B38C
:10F47000809584BB80E090E0E0EDF7E03197F1F714
:10F480000196883C9105C1F78091C00087FFEFCFBE
:10F4900014BA6BC08FEF809301010FC080910201FD
:10F4A00080958093020180E090E0E0EDF7E03197F5
:10F4B000F1F70196883C9105C1F78091C00087FF64
:10F4C000EDCF1092020151C08FEF809304010FC065
:10F4D0008091050180958093050180E090E0E0ED4A
:10F4E000F7E03197F1F70196883C9105C1F78091DB
:10F4F000C00087FFEDCF1092050137C08FEF8093DA
:10F5000007010FC08091080180958093080180E079
:10F5100090E0E0EDF7E03197F1F70196883C910536
:10F52000C1F78091C00087FFEDCF109208011DC088
:10F530008FEF80930A010FC080910B01809580931B
:10F540000B0180E090E0E0EDF7E03197F1F70196F4
:10F55000883C9105C1F78091C00087FFEDCF1092E4
:10F560000B0103C085E292EEEEC98091C00087FFD7
:10F57000FCCF8091C600EAC988E392EEE4C98CE131
:10F5800091EEE1C988249924933011F1943028F444
:10F59000913089F09230B8F408C0953061F195301F
:10F5A000F0F0963009F048C043C02B3109F042C951
:10F5B00091E06BE13FC96227C15DDE4F2883CF52E6
:10F5C000D14092E037C9B22FA0E0622793E032C960
:10F5D000822F90E0A82BB92B622794E02BC92E3004
:10F5E00009F039C3622795E0C05DDE4F19821882A9
:10F5F000C053D1401FC9E1E0F0E0EC0FFD1FC05D3A
:10F60000DE4F08811981C053D140E00FF11F2083E4
:10F610000F5F1F4FC05DDE4F19830883C053D14079
:10F6200062270A171B0709F005C9D80196E002C92D
:10F63000261709F010C303C0973009F0FBC87724E0
:10F640009981933109F412C19431C8F4963009F4C8
:10F65000D8C0973050F4923009F406C1933009F4C1
:10F660006DC0913009F059C253C0913109F477C08F
:10F67000923108F0BBC0903109F04FC2F5C098310B
:10F6800009F487C0993150F4953109F4EFC09531F0
:10F6900008F4C6C1963109F040C2C2C19A3109F4DA
:10F6A0006CC09A3108F491C09B3109F45BC09D3164
:10F6B00009F033C29D81903359F48F81882311F46E
:10F6C0009EE11CC0813011F091E018C098E916C08D
:10F6D000892F807591F0903539F4E0E0F0E089E011
:10F6E0008093570094910AC0983539F4E3E0F0E034
:10F6F00089E080935700949101C090E01A821B82A8
:10F700008D818C831D829E831F8227E030E009C299
:10F710001A8288E08B8381E48C8386E58D8382E581
:10F720008E8389E48F8383E5888780E589878FE5E9
:10F730008A8782E38B872BE030E0F3C18A818139AD
:10F7400041F0823941F0803911F48FE005C080E04A
:10F7500003C082E001C08AE01A828B8344C0772410
:10F76000739482C08D81882311F48EE12CC0813086
:10F7700011F081E028C088E926C01A82E1E0F0E0BB
:10F7800089E08093570084918B831C8224E030E0D1
:10F79000C8C18B81803589F48C81883039F4E2E0EE
:10F7A000F0E089E08093570084910DC0E0E0F0E044
:10F7B00089E080935700849106C0E3E0F0E089E09F
:10F7C0008093570084911A82DFCF8D81836C99E0FA
:10F7D000E1E0F0E0082E90935700E89507B600FCB2
:10F7E000FDCF1A821B8223E030E09BC180EC8A832C
:10F7F000CE5CDE4F188219821A821B82C253D1401E
:10F800008EC18A8190E0A0E0B0E0582F44273327D2
:10F8100022278B8190E0A0E0B0E0DC0199278827C7
:10F82000282B392B4A2B5B2B8D8190E0A0E0B0E098
:10F83000282B392B4A2B5B2B8C8190E0A0E0B0E089
:10F84000BA2FA92F982F8827282B392B4A2B5B2BCF
:10F85000220F331F441F551FC05EDE4F288339839C
:10F860004A835B83C052D1401A8259C13A81C95C34
:10F87000DE4F3883C753D140CA5CDE4F1882C6536F
:10F88000D1408B81C82EDD24CA5CDE4F488159816E
:10F89000C653D140C42AD52A933109F082C0CE5C28
:10F8A000DE4F88819981AA81BB81C253D1408050AB
:10F8B000904CA340B04030F583E0CE5CDE4FE88052
:10F8C000F9800A811B81C253D140F70100935B008C
:10F8D00080935700E89507B600FCFDCFCE5CDE4F65
:10F8E000088119812A813B81C253D14000501F4FAA
:10F8F0002F4F3F4FCE5CDE4F088319832A833B8313
:10F90000C253D140C05EDE4F488159816A817B81FC
:10F91000C052D140DE011B9631E08C9111962C91A2
:10F9200011971296C75CDE4F2883C953D140C85C3B
:10F93000DE4F1882C853D14090E0C85CDE4FE881AA
:10F94000F981C853D1408E2B9F2B0C01FA01609393
:10F950005B0030935700E89511244E5F5F4F6F4F67
:10F960007F4F0EEFE02E0FEFF02ECE0CDF1CC114F8
:10F97000D10499F685E0C05EDE4F088119812A81A5
:10F980003B81C052D140F80120935B008093570027
:10F99000E89507B600FCFDCF81E180935700E8951C
:10F9A00035C0C05EDE4F88819981AA81BB81C0527B
:10F9B000D140B695A795979587957C018601ABE0D8
:10F9C000AA2EB12CAC0EBD1E0BC0D5016D915D01F0
:10F9D000C7010F947FFE0894E11CF11C01501040F8
:10F9E0000115110591F7A60160E070E0440F551F65
:10F9F000661F771FC05EDE4FE880F9800A811B8199
:10FA0000C052D1404E0D5F1D601F711F1A82C05E33
:10FA1000DE4F488359836A837B83C052D1407FC0C5
:10FA2000FA80C55CDE4FF882CB53D140C65CDE4F16
:10FA30001882CA53D1408B81C82EDD24C65CDE4FAC
:10FA400008811981CA53D140C02AD12A1A828981DA
:10FA5000BE016D5F7F4F843121F59601C05EDE4FA0
:10FA6000E880F9800A811B81C052D1400BBFF701A9
:10FA700087919691DB018C9311969C936E5F7F4FDB
:10FA8000D801C7010296A11DB11DC05EDE4F88835B
:10FA90009983AA83BB83C052D14022503040F1F6F3
:10FAA00036C0C05EDE4F288139814A815B81C052F9
:10FAB000D1400894C108D108760100E010E0089414
:10FAC000C11CD11C0894E11CF11C011D111DE20E8A
:10FAD000F31E041F151F21BDBB27A52F942F832FB5
:10FAE00082BD2F5F3F4F4F4F5F4FF89A80B5DB01CC
:10FAF0008D93BD012E153F054007510761F7C05E8C
:10FB0000DE4F288339834A835B83C052D1409601FC
:10FB10002D5F3F4FFB01108204C080EC8A8322E0FE
:10FB200030E08BE18093C6008091C00086FFFCCF5F
:10FB30008091C00080648093C000C15DDE4FF88179
:10FB4000CF52D140F093C6008091C00086FFFCCF19
:10FB50008091C00080648093C000432F3093C60022
:10FB60008091C00086FFFCCF8091C00080648093AC
:10FB7000C000922F2093C6008091C00086FFFCCF6A
:10FB80008091C00080648093C0008EE08093C600A6
:10FB90008091C00086FFFCCF8091C000806480937C
:10FBA000C00065E1C15DDE4FE880CF52D1406E25D7
:10FBB00069276427FE01319610C090819093C6009A
:10FBC0008091C00086FFFCCF31968091C000806498
:10FBD0008093C0006927215030402115310569F715
:10FBE0006093C6008091C00086FFFCCF8091C0006A
:10FBF00080648093C00085B1805885B9772081F4F6
:10FC0000C15DDE4F0881CF52D1400F5FC15DDE4F35
:10FC10000883CF52D14090E0A0E0B0E00D941AF4F8
:10FC200027982F9880E090E020ED37E0F901319798
:10FC3000F1F7019684369105C9F700008091C00064
:10FC40008D7F8093C00081E180935700E895EE2777
:10FC5000FF270994FFCF90E00D941AF497FB092E2B
:10FC600007260AD077FD04D02ED006D000201AF443
:10FC7000709561957F4F0895F6F7909581959F4F08
:10FC80000895A1E21A2EAA1BBB1BFD010DC0AA1FDD
:10FC9000BB1FEE1FFF1FA217B307E407F50720F0F5
:10FCA000A21BB30BE40BF50B661F771F881F991F70
:10FCB0001A9469F760957095809590959B01AC01B9
:10FCC000BD01CF010895AA1BBB1B51E107C0AA1FAC
:10FCD000BB1FA617B70710F0A61BB70B881F991FED
:10FCE0005A95A9F780959095BC01CD010895F99991
:10FCF000FECF92BD81BDF89A992780B50895262F31
:10FD0000F999FECF1FBA92BD81BD20BD0FB6F89400
:0EFD1000FA9AF99A0FBE01960895F894FFCF63
:00000001FF
