:100000000C9423020C9454020C9454020C94540249
:100010000C9454020C9454020C9454020C94540208
:100020000C9454020C9454020C9454020C945402F8
:100030000C9454020C9454020C9454020C945402E8
:100040000C9454020C9454020C9454020C945402D8
:100050000C9454020C9454020C9454020C94B30566
:100060000C9454020C947D050C9453050C9454028A
:100070000C9454020C9454020C9454020C945402A8
:100080000C9454020C9454020C9454020C94540298
:100090000C9454020C9454020C9454020C94540288
:1000A0000C9454020C9454020C9454020C94540278
:1000B0000C9454020C9454020C9454020C94540268
:1000C0000C9454020C9454020C9454020C94540258
:1000D0000C9454020C9454020C9454020C94540248
:1000E0000C9454020C9493020C94E7020C94510467
:1000F0000C9484020C944D040C9412040C9431045E
:100100000C9400040C9443040C941A040C942B04D7
:100110000C947A030C94F5020C9447040C94FD059E
:100120000C9457020C9439040C9435040C941E045E
:100130000C943F040C9421040C9416040C94270492
:100140000C94C00A0C942D030C94FB0300002100B6
:10015000240027002A002D00300033000101000098
:10016000040107010A0100002200250028002B00DD
:100170002E003100340002010000050108010B01CE
:1001800005050505070508080808020202020A0A13
:100190000808040404040101010101010101030331
:1001A000030303030303040707070C0C0C0C0C0CDC
:1001B0000C0C0202020206060606060606060B0BD9
:1001C0000B0B0B0B0B0B010210202008081020401A
:1001D000102040800201020108040201010204080B
:1001E0001020408080402010080402018004020199
:1001F00080402010080402010804020101020408E2
:1002000010204080010204081020408000000A0BEA
:1002100002090C0D0E080703040100000000000095
:1002200000000000000000000000000000000000CE
:10023000000000000000000012111000000000008B
:1002400000000000000000000000000000000000AE
:100250000000007CFE928AFE7C00008088FEFE800A
:10026000800000C4E6A2929E8C000044C69292FEDA
:100270006C0000302824FEFE2000004ECE8A8AFA50
:100280007200007CFE9292F66400000606E2FA1EFE
:100290000600006CFE9292FE6C00004CDE9292FE14
:1002A0007C000040E8A8A8F8F00000FEFE9090F066
:1002B00060000070F88888D850000060F09090FED0
:1002C000FE000070F8A8A8B830000020FCFE22262E
:1002D00004000018BCA4A4FC7C0000FEFE1010F07A
:1002E000E000000080F4F48000000060E080FA7A12
:1002F000000000FEFE2070D88800000000FEFE0016
:10030000000000F8F830E030F8F800F8F81818F8B5
:10031000F0000070F88888F8700000FCFC24243C91
:10032000180000183C24FCFC80C000F8F8080838CD
:1003300030000090A8A8A8A84800001010FCFC10ED
:1003400010000078F88080F8F800003070C0C070AD
:1003500030000078F880F080F8780088D87070D885
:1003600088000018B8A0A0F878000000C8E8B89885
:10037000000000FCFE1212FEFC0000FEFE9292FE47
:100380006C00007CFE8282C6440000FEFE8282FE7B
:100390007C0000FEFE929292820000FEFE1212127B
:1003A0000200007CFE82A2E6640000FEFE1010FE49
:1003B000FE00000082FEFE8200000060E082FE7E01
:1003C000020000FEFE386CC6820000FEFE808080C7
:1003D000800000FEFE0C180CFEFE00FEFE0C183025
:1003E000FEFE007CFE8282FE7C0000FEFE22223E9B
:1003F0001C00003C7E4262FEBC0000FEFE3272DE4B
:100400008C00004CDE9292F66400000602FEFE02B2
:100410000600007EFE8080FEFE00003E7EC0C07EA4
:100420003E0000FEFE603060FEFE00C6EE38103872
:10043000EEC6000E1EF0F01E0E0000C2E2B29A8E52
:100440008600FD05C00A11241FBECFEFD1E2DEBF3A
:10045000CDBF00E00CBF12E0A0E0B2E0E4ECFAE1B6
:1004600000E00BBF02C007900D92A833B107D9F787
:1004700023E0A8E3B2E001C01D92A134B207E1F786
:1004800012E0C2E2D2E000E006C021970109802F0D
:10049000FE010E941E0BC132D10780E00807A9F7B8
:1004A0000E9475060C94500D0C9400000895AF92B4
:1004B000BF92CF92DF92EF92FF920F931F93CF9351
:1004C000DF936C017B018B01040F151FEB015E01B3
:1004D000AE18BF08C017D10759F06991D601ED9148
:1004E000FC910190F081E02DC6011995892B79F7D7
:1004F000C501DF91CF911F910F91FF90EF90DF9099
:10050000CF90BF90AF900895FC01538D448D252F5F
:1005100030E0842F90E0821B930B541710F0CF969D
:10052000089501970895FC01918D828D981761F0CF
:10053000A28DAE0FBF2FB11D5D968C91928D9F5FE6
:100540009F73928F90E008958FEF9FEF08952FB7DC
:10055000F89480913D0290913E02A0913F02B091AB
:1005600040022FBF8093490290934A02A0934B020E
:10057000B0934C0281E492E00E94930297FF26C060
:100580002FB7F89480913D0290913E02A0913F02D6
:10059000B09140022FBF4091490250914A026091B0
:1005A0004B0270914C02841B950BA60BB70B40912C
:1005B00045025091460260914702709148028417AB
:1005C0009507A607B707B0F28FEF9FEF0895FC01DC
:1005D000918D828D981731F0828DE80FF11D858DF8
:1005E00090E008958FEF9FEF0895FC01918D228D8B
:1005F000892F90E0805C9F4F821B91098F73992710
:10060000089581E492E00E94F50221E0892B09F42B
:1006100020E0822F0895FC01A48DA80FB92FB11DF1
:10062000A35ABF4F2C91848D90E001968F73992728
:10063000848FA689B7892C93A089B1898C91837006
:1006400080648C93938D848D981306C00288F389FF
:10065000E02D80818F7D80830895EF92FF920F932C
:100660001F93CF93DF93EC0181E0888F9B8D8C8D5E
:1006700098131AC0E889F989808185FF15C09FB752
:10068000F894EE89FF896083E889F9898081837015
:10069000806480839FBF81E090E0DF91CF911F91C4
:1006A0000F91FF90EF900895F62E0B8D10E00F5FE5
:1006B0001F4F0F731127E02E8C8D8E110CC00FB6BB
:1006C00007FCFACFE889F989808185FFF5CFCE0153
:1006D0000E940B03F1CFEB8DEC0FFD2FF11DE35AC0
:1006E000FF4FF0829FB7F8940B8FEA89FB898081D6
:1006F0008062CFCFCF93DF93EC01888D8823B9F050
:10070000AA89BB89E889F9898C9185FD03C080811C
:1007100086FD0DC00FB607FCF7CF8C9185FFF2CF99
:10072000808185FFEDCFCE010E940B03E9CFDF91E1
:10073000CF91089580E090E0892B29F00E94010379
:1007400081110E94000080E090E0892B49F080E058
:1007500090E0892B29F00E94000081110E94000086
:1007600080E090E0892B49F080E090E0892B29F02F
:100770000E94000081110E94000080E090E0892B1F
:1007800049F080E090E0892B29F00E94000081115F
:100790000C9400000895282F30E0F901E45FFD4F2C
:1007A0009491F901EA53FE4F449120583E4FF901CC
:1007B0002491222309F435C0992311F191509231EB
:1007C000F8F4E92FF0E08827E751FC4F8F4F0C94A5
:1007D0001E0B1A041E04FB03120416040004210459
:1007E00027042B043104350439043F044304000476
:1007F00047044D045104809180008F7780938000DE
:10080000E22FF0E0EE0FFF1FEA59FE4FA591B491E1
:100810008FB7F894EC91611148C040954E234C93EA
:100820008FBF0895809180008F7DE8CF80918000F8
:10083000877FE4CF84B58F7784BDE2CF84B58F7D89
:10084000FBCF8091B0008F778093B000D9CF80919B
:10085000B0008F7DF9CF809190008F7780939000CA
:10086000CFCF809190008F7DF9CF80919000877FCE
:10087000F5CF8091A0008F778093A000C1CF8091A9
:10088000A0008F7DF9CF8091A000877FF5CF809168
:1008900020018F7780932001B3CF809120018F7D3D
:1008A000F9CF80912001877FF5CF4E2BB8CFCF9322
:1008B000DF9390E0FC01EA53FE4F249180589E4F55
:1008C000FC0184918823D1F090E0880F991FFC01EE
:1008D000E45BFE4FA591B491FC01EA59FE4FC5912E
:1008E000D49161110EC09FB7F8948C91E22FE095DE
:1008F0008E238C932881E223E8839FBFDF91CF91E1
:1009000008958FB7F894EC91E22BEC938FBFF6CF5C
:100910003FB7F8948091390290913A02A0913B023E
:10092000B0913C0226B5A89B05C02F3F19F0019657
:10093000A11DB11D3FBFBA2FA92F982F8827BC0139
:10094000CD01620F711D811D911D42E0660F771F61
:10095000881F991F4A95D1F70895CF92DF92EF92A1
:10096000FF920F931F93CF93DF931F921F92CDB7E8
:10097000DEB769834A83880F991F00913A0310916B
:100980003B03000F111FE4EEF2E09F01245E3240B2
:100990002017310714F41192F8CF2981FC01EC5192
:1009A000FD4F21838A81808360E0809138030E941B
:1009B000CB031016110604F501501109F801EC5192
:1009C000FD4FE080D0903603C090340388E0F82ECD
:1009D0006E2D661F6627661F8C2D0E94CB03EE0CC2
:1009E00061E08D2D0E94CB0360E08D2D0E94CB0332
:1009F000FA94F110EDCFDDCF61E0809138030F90D4
:100A00000F90DF91CF911F910F91FF90EF90DF90AA
:100A1000CF900C94CB03EF92FF920F931F93CF9341
:100A20007C018C0183E0000F111F8A95E1F70C50C7
:100A30001D4FC1E0F80111928F0140E06C2FC701FA
:100A40000E94AD04CF5FC930A9F7CF911F910F91DC
:100A5000FF90EF9008950F931F93CF93DF93EC01D6
:100A600088819981009759F02A813B8126173707A1
:100A700030F081E0DF91CF911F910F9108958B01AC
:100A80006F5F7F4F0E945F0C009759F099838883B6
:100A90001B830A832C813D81232B59F7FC01108293
:100AA000E8CF80E0E7CF1F920F920FB60F9211248C
:100AB0000BB60F922F933F934F935F936F937F9358
:100AC0008F939F93AF93BF93EF93FF9381E492E053
:100AD0000E940B03FF91EF91BF91AF919F918F9176
:100AE0007F916F915F914F913F912F910F900BBE2E
:100AF0000F900FBE0F901F9018951F920F920FB678
:100B00000F9211240BB60F922F938F939F93EF9315
:100B1000FF93E0915102F09152028081E0915702DF
:100B2000F091580282FD1DC0908180915A028F5F22
:100B30008F7320915B02821741F0E0915A02F0E03E
:100B4000EF5BFD4F958F80935A02FF91EF919F913C
:100B50008F912F910F900BBE0F900FBE0F901F9093
:100B600018958081F2CF1F920F920FB60F92112429
:100B70002F933F938F939F93AF93BF9380913D02A9
:100B800090913E02A0913F02B09140023091380214
:100B900023E0230F2D3758F50196A11DB11D209399
:100BA000380280933D0290933E02A0933F02B0939F
:100BB00040028091390290913A02A0913B02B0919B
:100BC0003C020196A11DB11D8093390290933A0217
:100BD000A0933B02B0933C02BF91AF919F918F9144
:100BE0003F912F910F900FBE0F901F90189526E800
:100BF000230F0296A11DB11DD2CF10924402109274
:100C0000430288EE93E0A0E0B0E080934502909329
:100C10004602A0934702B093480282E192E090938B
:100C200042028093410285EC90E090934E028093C3
:100C30004D0284EC90E09093500280934F0280EC40
:100C400090E0909352028093510281EC90E0909357
:100C500054028093530282EC90E09093560280936A
:100C6000550286EC90E090935802809357021092C0
:100C70005A0210925B0210925C0210925D02109276
:100C8000DF021092DE021092E1021092E002109256
:100C9000E3021092E20263E170E08EED92E00E94C6
:100CA0002B052091DE023091DF02811113C0211546
:100CB000310519F0C9010E94D60B1092DF02109283
:100CC000DE021092E3021092E2021092E102109210
:100CD000E002089583E190E09093E3028093E202C2
:100CE00060E272E0C9010C94490DCF93DF93CDB758
:100CF000DEB766970FB6F894DEBF0FBECDBF78940F
:100D000084B5826084BD84B5816084BD85B5826010
:100D100085BD85B5816085BD80916E0081608093C1
:100D20006E0010928100809181008260809381002A
:100D3000809181008160809381008091800081603A
:100D4000809380008091B10084608093B100809195
:100D5000B00081608093B0008091910082608093A8
:100D6000910080919100816080939100809190002A
:100D70008160809390008091A10082608093A100A7
:100D80008091A10081608093A1008091A00081608A
:100D90008093A00080912101826080932101809145
:100DA00021018160809321018091200181608093E5
:100DB000200180917A00846080937A0080917A008B
:100DC000826080937A0080917A00816080937A00BB
:100DD00080917A00806880937A001092C1000CE0C4
:100DE00010E010933503009334038BE090E0909370
:100DF0003703809336038DE090E09093390380931E
:100E0000380310923C0382E090E090933B03809380
:100E10003A0361E08CE00E94570461E08091360360
:100E20000E94570461E0809138030E94570461E0FA
:100E3000809138030E94CB03109335030093340351
:100E4000E4EFF2E084E393E011928E179F07E1F75D
:100E500010E000E080913A0390913B0308171907D6
:100E60007CF540E06FE0C8010E94AD0480913A0338
:100E700090913B03081719072CF447E06BE0C80179
:100E80000E94AD0440E069E0C8010E94AD04809179
:100E90003A0390913B03081719071CF4C8010E94FC
:100EA0000B0580913A0390913B03081719072CF426
:100EB00040E06CE0C8010E94AD040F5F1F4FCACF35
:100EC00010E000E080913A0390913B030817190766
:100ED000F4F441E06CE0C8010E94AD0480913A0353
:100EE00090913B03081719072CF448E06AE0C80109
:100EF0000E94AD0480913A0390913B0308171907B3
:100F00001CF4C8010E940B050F5F1F4FDBCF61E08F
:100F100087E30E94570460E08AE00E94570460E083
:100F200088E00E94570461E087E00E94570461E076
:100F300086E00E94570461E085E00E94570461E06A
:100F400084E00E94570461E083E00E94570461E05E
:100F500082E00E94570461E089E00E94570460E04B
:100F600086E30E94570461E08DE00E945704E091FF
:100F70005102F091520282E08083E0914D02F091A3
:100F80004E021082E0914F02F09150028FEC80836C
:100F900010925902E0915502F091560286E080834A
:100FA000E0915302F0915402808180618083E0914E
:100FB0005302F0915402808188608083E091530253
:100FC000F0915402808180688083E0915302F09117
:100FD000540280818F7D808380917B00877F809306
:100FE0007B0020E420937C0080917A0080648093D1
:100FF0007A0080917A0086FDFCCF80917800609124
:101000007900762F682F072E000C880B990BE2E0F1
:10101000660F771F881F991FEA95D1F72FEF33E0EE
:1010200040E050E00E94C90A89019A010F5F1F4FFA
:101030002F4F3F4F0130110509F05FC060E087E09E
:101040000E94CB0361E086E00E94CB0361E085E073
:101050000E94CB0360E084E00E94CB0360E083E069
:101060000E94CB0360E082E00E94CB0360E089E055
:101070000E94CB0381E492E00E94F502892B09F4DF
:10108000D8C01A8219821C821B821E821D8270E0C7
:1010900060E0CE0101960E942B0529813A818111E1
:1010A00085C02115310519F0C9010E94D60B1A829D
:1010B00019821E821D821C821B820E94A70297FD3C
:1010C0007DC089871A86ED80FE803FEFE31AF30A20
:1010D000B701CE0101960E942B05882371F3298167
:1010E0003A818D819E81BE01675F7F4F820F931F82
:1010F0000E94490DFE82ED82E0CF02301105D1F44D
:1011000061E087E00E94CB0361E086E00E94CB03B0
:1011100060E085E00E94CB0361E084E00E94CB03A5
:1011200061E083E00E94CB0360E082E00E94CB0399
:1011300061E09DCF0330110591F461E087E00E94EA
:10114000CB0361E086E00E94CB0361E085E00E9472
:10115000CB0361E084E00E94CB0360E0E2CF043087
:101160001105B1F460E087E00E94CB0361E086E006
:101170000E94CB0361E085E00E94CB0360E084E045
:101180000E94CB0360E083E00E94CB0361E0CDCFFF
:1011900061E087E00E94CB0360E086E00E94CB0321
:1011A00061E085E00E94CB0361E0E9CF1E821D82F1
:1011B00066E372E0C9010E94490D7FCF8091DE0293
:1011C0009091DF02009709F4AEC069817A816115C0
:1011D000710509F4A6C04091E0025091E1022D8111
:1011E0003E814217530708F49CC00E94490D8D812F
:1011F0009E819093E3028093E2021E821D82898188
:101200009A81009711F00E94D60B4091E202509112
:10121000E3026091DE027091DF0281E492E00E94BD
:10122000570242E050E064E372E081E492E00E9401
:1012300057026090DE027090DF0288EE93E0B80102
:101240000E940A0BCB01770FAA0BBB0B8B879C87E5
:10125000AD87BE8720903A0330903B0363E0220CB9
:10126000331C6A95E1F7F30101900020E9F731970B
:10127000C3018E1B9F0BDC0173E0AA0FBB1F7A9585
:10128000E1F7BE8BAD8BED89FE89E215F3050CF01D
:1012900074C121014301F30101900020E9F7319766
:1012A000E619F709C401861997098E179F0708F0F8
:1012B0003CC1D4018D914D0198E0E6E0F2E0DE0101
:1012C000119601900D929A95E1F79FEB980F9A3144
:1012D00008F040C0B8E08B02C0011124DE01119675
:1012E00030E020E086599E4FFC01E20FF31FE491AD
:1012F000ED932F5F3F4F28303105B1F780913C03CC
:1013000081118FC010E000E0B201600F711F90E00A
:1013100080E0683071050CF45BC00196685071097B
:10132000F8CF0E94D60B89819A819093DF02809337
:10133000DE028B819C819093E1028093E0028D819B
:101340009E819093E3028093E2021A8219821C82AA
:101350001B8253CF9FE9980F9A31A8F4E8E08E02E0
:10136000C0011124DE01119630E020E08656904045
:10137000FC01E20FF31FE491ED932F5F3F4F283004
:101380003105B1F7BBCF90ED980F9A30A8F4F8E093
:101390008F02C0011124DE01119630E020E08E5250
:1013A0009F4FFC01E20FF31FE491ED932F5F3F4F3E
:1013B00028303105B1F7A2CF803209F09FCF1982D2
:1013C0001A821B821C821D821E821F82188696CF63
:1013D00020913A0330913B0382179307F4F468306D
:1013E0007105A8F4E1E0F0E0EC0FFD1FE00FF11F44
:1013F0004081FC0153E0EE0FFF1F5A95E1F7EC51DD
:10140000FD4FE60FF71F408B6F5F0E94AD040F5F2B
:101410001F4F0830110509F077CFF8E04F0E511C2F
:101420003ACF80913A0390913B03019723E0880FD4
:10143000991F2A95E1F79C0124193509388B2F87CC
:1014400038E0C32ED12C20913A0330913B0389011F
:10145000015011098F8598898C199D0997FF04C047
:10146000015011090896FACF0F3F4FEF1407ACF265
:101470000F3F100709F450C0021713070CF04CC0BF
:10148000883091050CF048C0F6013197A1E0B0E03A
:10149000AC0FBD1FEA0FFB1FA080F80193E0EE0F19
:1014A000FF1F9A95E1F7FC8BEB8B20E830E002C040
:1014B000359527958A95E2F7298B20952A8BF12C73
:1014C000E12CB12C80913A0390913B030817190746
:1014D000E4F4EB89FC89EE0DFF1DEC51FD4F808992
:1014E00027E030E02E193F09A50102C05595479528
:1014F0002A95E2F740FF16C05989852B808B4089D9
:1015000061E06E0DC8010E94AD04AFEFEA1AFA0A5D
:10151000B8E0EB16F104B1F6E1E0CE1AD10809F01B
:1015200092CF7BCF9A898923E9CF0E9488044B010F
:101530005C01CB84DC84ED84FE84C114D104E1041D
:10154000F104B9F00E948804681979098A099B0995
:10155000683E73408105910580F321E0C21AD108ED
:10156000E108F10838EE830E33E0931EA11CB11C94
:10157000E4CF51E0251A310886CE0E949A032CCD83
:101580008091DE029091DF02009711F00C94D60B4F
:101590000895052E97FB1EF400940E94E00A57FD63
:1015A00007D00E94E80A07FC03D04EF40C94E00A2E
:1015B00050954095309521953F4F4F4F5F4F08957F
:1015C00090958095709561957F4F8F4F9F4F0895AF
:1015D000A1E21A2EAA1BBB1BFD010DC0AA1FBB1F37
:1015E000EE1FFF1FA217B307E407F50720F0A21BA9
:1015F000B30BE40BF50B661F771F881F991F1A9416
:1016000069F760957095809590959B01AC01BD013F
:10161000CF01089597FB072E16F4009407D077FDAD
:1016200009D00E94260B07FC05D03EF490958195C9
:101630009F4F0895709561957F4F0895EE0FFF1F9E
:10164000881F8BBF0790F691E02D1994AA1BBB1B36
:1016500051E107C0AA1FBB1FA617B70710F0A61BB2
:10166000B70B881F991F5A95A9F780959095BC01D3
:10167000CD0108950F931F93CF93DF93823091058F
:1016800010F482E090E0E0913F03F091400330E0FD
:1016900020E0B0E0A0E0309799F42115310509F47D
:1016A0004AC0281B390B24303105D8F58A819B812B
:1016B0006115710589F1FB0193838283FE0111C0DD
:1016C000408151810281138148175907E0F0481782
:1016D000590799F4109761F012960C93129713968C
:1016E0001C933296CF01DF91CF911F910F910895F6
:1016F00000933F0310934003F4CF2115310551F0BF
:101700004217530738F0A901DB019A01BD01DF013F
:10171000F801C1CFEF01F9CF9093400380933F03CD
:10172000CDCFFE01E20FF31F819391932250310937
:1017300039832883D7CF20913D0330913E03232B5B
:1017400041F4209102023091030230933E03209332
:101750003D0320910002309101022115310541F431
:101760002DB73EB74091040250910502241B350B62
:10177000E0913D03F0913E03E217F307A0F42E1B26
:101780003F0B2817390778F0AC014E5F5F4F2417E5
:10179000350748F04E0F5F1F50933E0340933D03C3
:1017A000819391939FCFF0E0E0E09CCFCF93DF93C4
:1017B0000097E9F0FC01329713821282A0913F0357
:1017C000B0914003ED0130E020E01097A1F42081BA
:1017D0003181820F931F20913D0330913E032817E2
:1017E000390709F061C0F0933E03E0933D03DF91B8
:1017F000CF910895EA01CE17DF07E8F54A815B81B2
:101800009E0141155105B1F7E901FB83EA83499136
:101810005991C40FD51FEC17FD0761F480819181A8
:101820000296840F951FE9019983888382819381B1
:101830009B838A83F0E0E0E012968D919C91139750
:101840000097B9F52D913C911197CD010296820F29
:10185000931F20913D0330913E032817390739F635
:10186000309751F51092400310923F03B0933E031E
:10187000A0933D03BCCFD383C28340815181840FA9
:10188000951FC817D90761F44E5F5F4F8881998112
:10189000480F591F518340838A819B8193838283A0
:1018A0002115310509F0B0CFF0934003E0933F03D9
:1018B0009ECFFD01DC01C0CF13821282D7CF4F92A1
:1018C0005F926F927F928F929F92AF92BF92CF92D0
:1018D000DF92EF92FF920F931F93CF93DF938C01D0
:1018E000009799F4CB01DF91CF911F910F91FF9059
:1018F000EF90DF90CF90BF90AF909F908F907F90B0
:101900006F905F904F900C943A0BFC01E60FF71F1D
:101910009C0122503109E217F30708F4AEC0D90147
:10192000CD91DC911197C617D70720F1C530D105AD
:1019300078F0CE0104978617970750F0C61BD70B97
:101940002297C193D1936D937C93CF010E94D60BC4
:10195000C801DF91CF911F910F91FF90EF90DF9021
:10196000CF90BF90AF909F908F907F906F905F903F
:101970004F9008955B01AC1ABD0A4C018C0E9D1E60
:10198000A0913F03B0914003512C412CF12CE12C4C
:10199000109731F580913D0390913E03881599058C
:1019A00009F05CC04616570608F058C08091000246
:1019B00090910102009741F48DB79EB740910402C7
:1019C00050910502841B950BE817F90708F055C0E4
:1019D000F0933E03E0933D03F90171836083B8CF38
:1019E0008D919C91119712966C90129713967C9002
:1019F0001397A815B90559F56C0142E0C40ED11C26
:101A0000CA14DB0420F1AC014A195B09DA01129611
:101A1000159780F06282738251834083D9016D9360
:101A20007C93E114F10471F0D7011396FC93EE93CB
:101A300012978ECF22968C0F9D1FF9019183808380
:101A4000F301EFCFF0934003E0933F0381CF4816BB
:101A5000590608F42C017D01D3019ACFCB010E94D5
:101A60003A0B7C01009749F0AE01B8010E94400D8D
:101A7000C8010E94D60B87016BCF10E000E068CF51
:101A8000FB01DC0102C001900D9241505040D8F79B
:101A90000895FB01DC0101900D920020E1F708950B
:101AA00012E0C2E2D2E000E006C0802FFE010E94F8
:101AB0001E0B2196011DC332D10780E00807A9F74C
:041AC000F894FFCFC8
:101AC40000004103800000082A1C771C2A0800003B
:101AD40000002D03570284027A03F5029302E70201
:101AE40050312D475255504F232D53454343494FB1
:081AF4004E2041000D0A000024
:00000001FF
